:100000000C948C010C94BD010C94BD010C94BD01A9
:100010000C94BD010C94BD010C94BD010C94BD0168
:100020000C94BD010C94BD010C94BD010C94BD0158
:100030000C94BD010C94BD010C94BD010C94BD0148
:100040000C94BD010C946F0E0C94BD010C94BD0179
:100050000C94BD010C94BD010C94BD010C94C50D14
:100060000C94BD010C94390E0C940F0E0C94BD0130
:100070000C94BD010C94BD010C94BD010C94BD0108
:100080000C94BD010C94BD010C94BD010C94BD01F8
:100090000C94BD010C94BD010C94BD010C94A10CF9
:1000A0000C94BD010C94BD010C94BD010C94BD01D8
:1000B0000C94BD010C94BD010C94BD010C94BD01C8
:1000C0000C94BD010C94BD010C94BD010C94BD01B8
:1000D0000C94BD010C94BD010C94BD010C94BD01A8
:1000E0000C94BD010C94D2020C94790B0C940B026D
:1000F0000C94BA020C9472090C94C0010C94C705BC
:100100000C947D0B0C94D1020C949F020C94690505
:100110000C945A070C94C4020C94C8020C94BD06AB
:100120000C94A1060C9473090C94A3020C944C0635
:100130000C94D10B0C94E8010C94CA060C949E0705
:100140000C949B020C94A1070C94E9010C94B0024E
:100150000C94070C0C94BA060C94C3060C94F8018A
:100160000C94CD060C94AB060C94BE020C941202B7
:100170000C94A6020C94EB090C9410070C94D9066D
:100180000C94CC020C94D0060C9408070C949702A3
:100190000C94A5060C94B6020C94A9060C94A50523
:1001A0000C94FF050C94B7060C943F020C94A80F16
:1001B0000C94D3060C949D060C94B9050C94D602AD
:1001C0000C94C0060C94E8080C949F070C94B3069A
:1001D0000C9496050C94D6060C94BF010C94AF06B3
:1001E0000C9491020C94AC02000001000800400045
:1001F00000010004050D00002100240027002A0052
:100200002D003000330001010000040107010A0144
:1002100000002200250028002B002E0031003400B1
:1002200002010000050108010B010000200023006D
:10023000260029002C002F003200000100000301DD
:100240000601090105050505070508080808020259
:1002500002020A0A08080404040401010101010160
:1002600001010303030303030303040707070C0C43
:100270000C0C0C0C0C0C020202020606060606060A
:1002800006060B0B0B0B0B0B0B0B010210202008AF
:1002900008102040102040800201020108040201E1
:1002A0000102040810204080804020100804020150
:1002B00080040201804020100804020108040201A9
:1002C0000102040810204080010204081020408030
:1002D00000000A0B02090C0D0E08070304010000C0
:1002E000000000000000000000000000000000000E
:1002F00000000000000000000000000012111000CB
:1003000000000000000000000000000000000000ED
:10031000000000000000A80F11241FBECFEFD1E2A3
:10032000DEBFCDBF00E00CBF13E0A0E0B2E0EEE323
:10033000F3E300E00BBF02C007900D92A637B107B0
:10034000D9F725E0A6E7B3E001C01D92AC3FB207A4
:10035000E1F711E0CCE8D1E000E006C02197010907
:10036000802FFE010E946916CB38D10780E0080774
:10037000A9F70E943C100C949D190C94000008955C
:1003800008952091C203260F3327331F21323105F0
:10039000ECF420911104FC0190E080E0243069F03D
:1003A00082E00895A091C2032191AC014E555C4FAB
:1003B000A40FB52FB11D2C930196861798F3809149
:1003C000C203680F6093C20380E0089581E008953E
:1003D0000895E091EA038091E903E81730F4F0E032
:1003E000EF57FC4F808190E008958FEF9FEF0895C5
:1003F0009091EA038091E9032FEF3FEF981748F4BB
:10040000E92FF0E0EF57FC4F208130E09F5F9093A1
:10041000EA03C90108958091E9039091EA03891BD9
:10042000990B0895CF92DF92EF92FF920F931F9353
:10043000CF93DF937C01CB018A0120911704222303
:1004400089F0EB016B01C40ED51ECC15DD0569F0FA
:100450006991D701ED91FC910190F081E02DC701E8
:100460001995F3CF642F0E94C101C801DF91CF918C
:100470001F910F91FF90EF90DF90CF900895CF9351
:10048000DF931F92CDB7DEB7698320911704222333
:10049000F9F020913A04203258F021E030E0FC01DC
:1004A0003383228390E080E00F90DF91CF91089515
:1004B00080911804E82FF0E0E75EFB4F998190836C
:1004C0008F5F8093180480933A0481E090E0ECCF32
:1004D00061E0CE0101960E94C101F7CF682F8BE346
:1004E00094E00C943F028150823108F05AC0E82F0A
:1004F000F0E08827E158FD4F8F4F0C9469169F025A
:10050000A302910297029B02D102A602AC02B002A2
:10051000B602BA02BE02C402C802D102CC02D202A2
:10052000D602809180008F7780938000089580911B
:1005300080008F7DF9CF80918000877FF5CF84B5D3
:100540008F7784BD089584B58F7DFBCF8091B000F7
:100550008F778093B00008958091B0008F7DF9CFA0
:10056000809190008F778093900008958091900003
:100570008F7DF9CF80919000877FF5CF8091A0008B
:100580008F778093A00008958091A0008F7DF9CF90
:100590008091A000877FF5CF809120018F77809395
:1005A00020010895809120018F7DF9CF8091200155
:1005B000877FF5CFCF93DF93282F30E0F901E05309
:1005C000FD4F8491F901E657FD4FD491F901EC5BA1
:1005D000FD4FC491CC23A1F081110E947302EC2F36
:1005E000F0E0EE0FFF1FE65DFD4FA591B491EC9199
:1005F000ED2381E090E009F480E0DF91CF91089550
:1006000080E090E0FACF1F93CF93DF93282F30E064
:10061000F901E053FD4F8491F901E657FD4FD49164
:10062000F901EC5BFD4FC491CC23A9F0162F811189
:100630000E947302EC2FF0E0EE0FFF1FE05FFD4F12
:10064000A591B4918FB7F894EC91111108C0D09591
:10065000DE23DC938FBFDF91CF911F910895DE2BB6
:10066000F8CF1092110481E0809310041092EB03F4
:1006700061E084E10E94030361E085E10E940303DD
:10068000E9EBF0E080818E7F808380818D7F8083A5
:1006900088E48093B80085E48093BC000895CF93EC
:1006A000DF9391E09093A1038823B9F0C091B80043
:1006B000D091BA008091BC008A7B8093BC0060E03E
:1006C00084E10E94030360E085E10E9403030E942D
:1006D0003103D093BA00C093B800DF91CF91089551
:1006E000CF93DF9390E0FC01E657FD4F24918C5BA4
:1006F0009D4FFC0184918823C9F090E0880F991FD9
:10070000FC01EA50FE4FA591B491FC01E05FFD4F62
:10071000C591D49161110DC09FB7F8948C9120952B
:1007200082238C938881282328839FBFDF91CF91D8
:100730000895623051F49FB7F8943C91822F8095D0
:1007400083238C93E8812E2BEFCF8FB7F894EC9115
:100750002E2B2C938FBFEACF863308F0865320913F
:100760007B00982F9870277F922B90937B00877047
:10077000806480937C0080917A00806480937A000A
:1007800080917A0086FDFCCF80917800909179006D
:1007900008958091E8050E94AC03BC01990F880B75
:1007A000990B0E940D152DE032E348EC5DE30E94A9
:1007B00048150E94E5160E940D1520E030E040E04B
:1007C00052E40E9448150E94E516CB0108953FB7F8
:1007D000F89480917D0390917E03A0917F03B09166
:1007E000800326B5A89B05C02F3F19F00196A11DD7
:1007F000B11D3FBFBA2FA92F982F8827BC01CD016B
:10080000620F711D811D911D42E0660F771F881FC9
:10081000991F4A95D1F70895CF92DF92EF92FF92F8
:100820000F931F93CF93DF93D0913A0481E0D1329D
:1008300008F09CC0C09139040E94E7036B017C0161
:100840008091110481116CC082E08093110481E0D9
:10085000809310048FEF80930F0410920E04D093B6
:100860000D04A9E1B4E0EDEEF3E080E0D8138DC013
:100870001092EC038091EC03CC0FC82BC093EC03D7
:100880008091EB03813009F084C01092EB030E9449
:10089000E7036B017C018091EC038093BB008091A6
:1008A000130490911404A0911504B0911604892B9F
:1008B0008A2B8B2BA1F00E94E70300911304109167
:1008C000140420911504309116046C197D098E09C9
:1008D0009F09061717072807390708F442C08091B7
:1008E000BC0083FDD8CF85EC8093BC000E94E70359
:1008F0006B017C0180911104823009F44CC080911D
:100900000F048F3F09F469C080910F04803209F40D
:1009100066C080910F04803309F463C084E026C070
:100920008091130490911404A0911504B0911604C1
:10093000892B8A2B8B2B09F483CF0E94E70300912C
:1009400013041091140420911504309116046C19AD
:100950007D098E099F09061717072807390708F030
:100960006FCF809112040E944F0385E0109218040B
:1009700010923A0410921704DF91CF911F910F91BA
:10098000FF90EF90DF90CF9008959D9191938F5FAE
:100990006DCF85EEA9CF8091130490911404A0919E
:1009A0001504B0911604892B8A2B8B2B09F4A2CF46
:1009B0000E94E70300911304109114042091150480
:1009C000309116046C197D098E099F0906171707C7
:1009D0002807390708F08ECFC4CF80E0C7CF82E068
:1009E000C5CF83E0C3CFCF93DF93EC0165E897FFDA
:1009F00004C0D195C195D10966E881E080931704C0
:100A00008DE0809339041092180410923A048BE31D
:100A100094E00E943F02CE018F7199270E946E02DE
:100A2000CE0125E0959587952A95E1F78F7799274F
:100A30000E946E020E940C04D093E505C093E40569
:100A4000DF91CF9108958F929F92AF92BF92CF92F4
:100A5000DF92EF92FF926B017C010E94E7034B0152
:100A60005C01C114D104E104F104B9F00E94E70370
:100A7000681979098A099B09683E734081059105C7
:100A800080F321E0C21AD108E108F10888EE880E4F
:100A900083E0981EA11CB11CE4CFFF90EF90DF9083
:100AA000CF90BF90AF909F908F9008952FB7F894FC
:100AB0006091790370917A0380917B0390917C031C
:100AC0002FBF0895DC01ED91FC910190F081E02DA4
:100AD0001994AF92BF92CF92DF92EF92FF920F9351
:100AE0001F93CF93DF936C017B018B01040F151FC4
:100AF000EB015E01AE18BF08C017D10759F069912C
:100B0000D601ED91FC910190F081E02DC60119957F
:100B1000892B79F7C501DF91CF911F910F91FF903C
:100B2000EF90DF90CF90BF90AF900895FC01538D70
:100B3000448D252F30E0842F90E0821B930B5417B7
:100B400010F0CF96089501970895FC01918D828D44
:100B5000981761F0A28DAE0FBF2FB11D5D968C91DD
:100B6000928D9F5F9F73928F90E008958FEF9FEF1C
:100B70000895FC01918D828D981731F0828DE80FD8
:100B8000F11D858D90E008958FEF9FEF0895FC0192
:100B9000918D228D892F90E0805C9F4F821B91095F
:100BA0008F739927089587E494E00E94C70521E098
:100BB000892B09F420E0822F0895FC01A48DA80F51
:100BC000B92FB11DA35ABF4F2C91848D90E001968F
:100BD0008F739927848FA689B7892C93A089B189AF
:100BE0008C91837080648C93938D848D981306C050
:100BF0000288F389E02D80818F7D80830895EF92B4
:100C0000FF920F931F93CF93DF93EC0181E0888FC6
:100C10009B8D8C8D98131AC0E889F989808185FF96
:100C200015C09FB7F894EE89FF896083E889F98938
:100C300080818370806480839FBF81E090E0DF913A
:100C4000CF911F910F91FF90EF900895F62E0B8D8D
:100C500010E00F5F1F4F0F731127E02E8C8D8E1148
:100C60000CC00FB607FCFACFE889F989808185FFAF
:100C7000F5CFCE010E94DD05F1CFEB8DEC0FFD2FFE
:100C8000F11DE35AFF4FF0829FB7F8940B8FEA896A
:100C9000FB8980818062CFCFCF93DF93EC01888D79
:100CA0008823B9F0AA89BB89E889F9898C9185FDE7
:100CB00003C0808186FD0DC00FB607FCF7CF8C9175
:100CC00085FFF2CF808185FFEDCFCE010E94DD054B
:100CD000E9CFDF91CF91089580E090E0892B29F052
:100CE0000E94D30581110E94000080E090E0892BD2
:100CF00049F080E090E0892B29F00E9400008111EA
:100D00000E94000080E090E0892B49F080E090E0B4
:100D1000892B29F00E94000081110E94000080E0D0
:100D200090E0892B49F080E090E0892B29F00E9427
:100D3000000081110C9400000895FC0184899589BC
:100D40000895FC01828993890895FC018089918925
:100D5000089580E00895FC01738362830895FC0187
:100D6000828193810895FC01868597850895FC0111
:100D700081850895FC0180850895FC01878108958F
:100D8000FC01868108954095FC0125854223642B52
:100D900065870895FC0164870895FC0163870895C1
:100DA000FC0162870895FC0164830895FC0165835A
:100DB00008958F929F92AF92BF92CF92DF92EF925F
:100DC000FF92CF93DF93EC016B010E9456054B011C
:100DD0005C01F12CE12C0E945605681979098A09F9
:100DE0009B096C157D058E059F0580F48A819B818A
:100DF000039789F381E0DF91CF91FF90EF90DF902F
:100E0000CF90BF90AF909F908F90089580E0F3CFE8
:100E1000FC012281338123303105D1F381E0089533
:100E20004F925F926F927F928F929F92AF92BF92FA
:100E3000CF92DF92EF92FF920F931F93CF93DF93A6
:100E4000EC016B018A010E9456052B013C01F12C3B
:100E5000E12C4801B12CA12C0E945605641975099A
:100E6000860997096C157D058E059F0588F4E88134
:100E7000F9810680F781E02DCE011995811109C015
:100E80000115110549F3C501B4010E942305E4CF02
:100E900080E0DF91CF911F910F91FF90EF90DF9055
:100EA000CF90BF90AF909F908F907F906F905F900A
:100EB0004F900895CF92DF92EF92FF920F931F937E
:100EC000CF93DF93EC018B016B01F12CE12CE881D6
:100ED000F9810680F781E02DCE011995811108C0B6
:100EE00001151105A1F3C701B6010E942305EFCF3B
:100EF000DF91CF911F910F91FF90EF90DF90CF90F6
:100F0000089581E00895862720E1829FB001112491
:100F10008627482F50E0292F382FCA0164E0959585
:100F200087956A95E1F728273927CA0173E0880F6A
:100F3000991F7A95E1F782279327089508958CE306
:100F400008956F927F928F929F92AF92BF92CF92AD
:100F5000DF92EF92FF920F931F93CF93DF934D3366
:100F600088F0712C872DDF91CF911F910F91FF9009
:100F7000EF90DF90CF90BF90AF909F908F907F9039
:100F80006F900895042F5B01EC01E881F9810088DE
:100F9000F189E02D1995E881F9810688F789E02D1E
:100FA000CE011995782E8823E1F27E0129E7E20E21
:100FB000F11C17E0100F612F8FEF9FEF0E94830746
:100FC000E12FF0E064E0F595E7956A95E1F7E65EDC
:100FD000FD4F2081F70120831F70E12FF0E0E65ED6
:100FE000FD4F2081FE01E658FF4F20831A85612FB7
:100FF0000E948307E12FF0E074E0F595E7957A957C
:10100000E1F7E65EFD4F2081FE01E558FF4F2083AA
:101010001F70E12FF0E0E65EFD4F2081FE01E458F5
:10102000FF4F20831B85612F0E948307E12FF0E093
:10103000A4E0F595E795AA95E1F7E65EFD4F2081DE
:10104000FE01E358FF4F20831F70E12FF0E0E65EC2
:10105000FD4F2081FE01E258FF4F20831C85612F48
:101060000E948307E12FF0E0B4E0F595E795BA958B
:10107000E1F7E65EFD4F2081FE01E158FF4F20833E
:101080001F70E12FF0E0E65EFD4F2081FE01E05889
:10109000FF4F20831D85612F0E948307E12FF0E021
:1010A00024E0F595E7952A95E1F7E65EFD4F20816E
:1010B000FE01EF57FF4F20831F70E12FF0E0E65E47
:1010C000FD4F2081FE01EE57FF4F20836501470150
:1010D00010E0A00EB11EF2E08F0E911CCA14DB04CA
:1010E000E9F0F60161906F01662D0E948307E62DFD
:1010F000F0E054E0F595E7955A95E1F7E65EFD4F8F
:101100002081F4012087F6013197E081EF70F0E053
:10111000E65EFD4F2081F4012187DDCF98012B5F32
:101120003F4F220F331F80959095D701A20FB31F19
:10113000FC0154E0F695E7955A95E1F7EF70FF272B
:10114000E65EFD4F30813C93F801EE0FFF1FBF01BB
:101150006E0D7F1DAC014F705527465E5D4FFA0145
:101160003081FB0133870A5F1F4F000F111F0E0DE7
:101170001F1DFC01EF2FFF27E295EF70E65EFD4F8C
:101180003081F8013083E92FFF27EF70FF27E65EFB
:10119000FD4F808113968C93FE01E150FF4F245F39
:1011A00020838A819B81039709F4DCCEE159F10900
:1011B000108231961082319610826F8D81E06827FF
:1011C0008D8D0E94030383E090E09B838A83CACEC7
:1011D000EF92FF921F93CF93DF93FC012281338123
:1011E0002330310509F452C0EC01828193810497C8
:1011F00061F0678D858D0E94030360E08C8D0E94F5
:10120000030384E090E09B838A8388A18823E9F02C
:1012100010E08FEF9FEF7E01FDE6EF0EF11CF7016E
:101220002081121740F4FE01E10FF11D61A50E941B
:1012300083071F5FF4CF883B904F71F088899989AD
:101240000196998B888B19A218A289A1DF91CF9161
:101250001F91FF90EF9008958AA58E838BA58F83B1
:101260008CA588878DA589878D81811107C09E8176
:101270008C81981719F08E818F3F31F78A899B896D
:1012800001969B8B8A8B81E089A3DECF80E0DECF45
:10129000CF93DF93FC01228133812230310569F045
:1012A000EC01678D858D0E94030360E08C8D0E94A8
:1012B000030382E090E09B838A83DF91CF910895BE
:1012C000FC01248131E030931704209339041092FB
:1012D000180410923A048485862B90E00E946E02D6
:1012E0000C940C04089590E080E008950F931F93F0
:1012F000CF938C01C62F0E9460096C2F6460C801D7
:101300000E9460096C2F6B7FC8010E94600983EC0A
:1013100090E00197F1F7CF911F910F9108950F93EE
:101320001F93CF93DF938C01D62FC42F607F642B44
:101330000E94760980E1D89FB00111246C2BC8016E
:10134000DF91CF911F910F910C947609CF93DF938A
:1013500000D000D01F921F92CDB7DEB798E0EAE030
:10136000F2E0DE01119601900D929A95E1F79091CD
:10137000F305961710F46FEF690F262F30E0220F58
:10138000331F41E050E04C0F5D1F240F351FF90162
:101390006081680F606840E08BEE95E028960FB69C
:1013A000F894DEBF0FBECDBFDF91CF910C948F09B3
:1013B00040E061E08BEE95E00E948F098BE39FE1B6
:1013C0000197F1F78091F405882321F060E080E037
:1013D0000C94A609089541E00E948F0981E090E0F5
:1013E000089585ED8093BC008091130490911404BE
:1013F000A0911504B09116040796A11DB11D23E01C
:10140000B695A795979587952A95D1F72091BC0019
:1014100024FD03C0109211040895409113045091CB
:1014200014046091150470911604452B462B472B2C
:1014300069F30097A105B10541F025E32A95F1F77D
:1014400000000197A109B109E1CF809112040C9429
:101450004F03FB0101900020E9F73197AF01461BD4
:10146000570BDC01ED91FC910280F381E02D199482
:10147000CF93DF93BC0187E494E00E94290AEC013A
:101480006AE972E087E494E00E94290A8C0F9D1FAC
:10149000DF91CF9108954F925F926F927F92AF92BA
:1014A000BF92CF92DF92EF92FF920F931F93CF9351
:1014B000DF93CDB7DEB7A1970FB6F894DEBF0FBEAE
:1014C000CDBF5C016A017B01F7FE42C06DE20E9464
:1014D00062058C0122273327A9012C193D094E09E9
:1014E0005F0919A2CE0181967C019AE0492E512C08
:1014F000612C712CCA01B901A30192010E94381616
:10150000605DF70162937F012115310541055105A9
:1015100089F790E080E0309721F0BF01C5010E947B
:10152000290A800F911FA1960FB6F894DEBF0FBE57
:10153000CDBFDF91CF911F910F91FF90EF90DF9082
:10154000CF90BF90AF907F906F905F904F90089535
:10155000AB01960119A28E010F5D1F4F8AE0C82EC4
:10156000D12CE12CF12CCA01B901A70196010E94EE
:101570003816605DF80162938F0121153105410530
:10158000510589F790E080E0309769F2BF01C5010D
:101590000E94290AC8CF0C94290ACF93DF93109296
:1015A000EA031092E9031092180410923A040E9480
:1015B00031038FEB91E09093E8038093E70380EC95
:1015C00091E09093E6038093E5031092F0058091FB
:1015D000F605823018F098E09093F0058093F305BB
:1015E00062E370E080E090E00E9423056091F705DF
:1015F0008BEE95E00E94600968EE73E080E090E079
:101600000E94230560E38BEE95E00E947609CBE40F
:10161000D6E4CE010197F1F760E38BEE95E00E94EE
:1016200076092197F1F760E38BEE95E00E94760949
:1016300083E592E00197F1F760E28BEE95E00E947E
:1016400076096091F005606240E08BEE95E00E94C3
:101650008F0984E08093F10540E06CE08BEE95E02B
:101660000E948F090E94D80982E08093F20540E031
:1016700066E08BEE95E00E948F0940E062E08BEE21
:1016800095E00E948F098BE39FE10197F1F788E0D5
:101690008093F70560E08BEE95E00E94600960E0C2
:1016A00080E00E94A6096DE972E08BEE95E00E9451
:1016B000CB0A61E080E00E94A6096BEA72E08BEE43
:1016C00095E00E94CB0A62E080E00E94A60967EBE9
:1016D00072E08BEE95E00E94CB0A63E080E00E940E
:1016E000A60968EC72E08BEE95E0DF91CF910C9447
:1016F000CB0A0C9404180E946E198F929F92AF929D
:10170000BF92CF92DF92EF92FF92CF93DF93FC01D3
:101710002789308D232BB9F1EC010E9456054B012E
:101720005C0189E0C82ED12CE12CF12CE881F981F3
:10173000008CF18DE02DCE011995882321F10E94B6
:101740005605AB01BC01481959096A097B098F8903
:10175000988DB0E0A0E084179507A607B707F8F0CA
:101760000E94AA14A70196010E9406169B01AC01D3
:101770002F5F3F4F4F4F5F4FA4E6B0E00E9425160A
:101780000E942305D3CF81E0DF91CF91FF90EF90AE
:10179000DF90CF90BF90AF909F908F90089580E0A2
:1017A000F3CFDF92EF92FF920F931F93CF93DF93CC
:1017B000EC017B018A01E881F9810680F781E02D47
:1017C0001995D82E8823D1F0E114F104B1F0011558
:1017D000110599F0FE01E359FF4F80818750F80110
:1017E0009081891708F48083F801408150E0BE01A0
:1017F000625D7F4FC7010E94731919A28D2DDF9181
:10180000CF911F910F91FF90EF90DF9008954F922D
:101810005F926F927F92AF92BF92CF92DF92EF92E0
:10182000FF921F93CF93DF931F921F92CDB7DEB726
:101830007C01909377038093760361E0FC01848DB3
:101840000E94700360E0F701838D0E94700361E0E5
:10185000F701858D0E947003C7010E944809F701B6
:10186000C18CD28CC114D10409F444C0F12CE12CF8
:1018700083E0CC0CDD1CEE1CFF1C8A95D1F79AEEA0
:10188000A92E91E0B92E11E0412C24E2522E24EF32
:10189000622E712C42E050E0B501CE0101960E940B
:1018A000021529813A8150E040E0C301B2010E9453
:1018B0003816CA01B901A70196010E943816DA014B
:1018C000C9010297A109B1098D3F9F4FA105B1053B
:1018D00010F11F5F62E0A60EB11C1730D9F622305E
:1018E00031054105510530F02115310581E04807EA
:1018F000510598F081E00F900F90DF91CF911F91EB
:10190000FF90EF90DF90CF90BF90AF907F906F905F
:101910005F904F900895163069F31092800088E030
:101920008093810080918100182B10938100309367
:1019300089002093880080916F00826080936F00FF
:10194000D9CF1F920F920FB60F9211240BB60F92A0
:101950002F933F934F935F936F937F938F939F93B7
:10196000AF93BF93EF93FF938091B900887F803648
:1019700009F44DC008F040C0883209F4A9C028F528
:10198000803109F49DC0C8F4882309F4FBC0883075
:1019900009F496C0FF91EF91BF91AF919F918F9104
:1019A0007F916F915F914F913F912F910F900BBE5F
:1019B0000F900FBE0F901F901895883109F488C0C2
:1019C000803241F780930F0414C0803409F49DC025
:1019D00040F48033B9F38833E9F680930F0485EC43
:1019E000B0C0803509F485C0883509F496C08834C4
:1019F00089F60E94F109CECF883909F48CC038F5F8
:101A0000883729F050F4883611F0803719F683E0D2
:101A1000809311041092E40357C0883809F47BC006
:101A2000803919F0803809F0B5CF8091E403803215
:101A300008F071C0E091E40381E08E0F8093E4032D
:101A40008091BB00F0E0EC53FC4F80833DC0803BB5
:101A500039F0E0F4803A09F479C0883A09F09ACF75
:101A600084E0809311041092C3031092C203E091AA
:101A7000E703F091E80319958091C20381110FC02B
:101A800081E08093C2031092A20309C0803C09F454
:101A9000A6CF883C09F4A3CF883B09F07BCFE09127
:101AA000C30381E08E0F8093C303F0E0EE55FC4F3B
:101AB00080818093BB009091C3038091C20329C0B1
:101AC0008091EC038093BB0085EC8093BC0062CFD7
:101AD00090910E0480910D04981758F5E0910E0432
:101AE00081E08E0F80930E04F0E0E351FC4F808183
:101AF000E9CFE0910E0481E08E0F80930E04809177
:101B0000BB00F0E0E351FC4F808390910E04809184
:101B10000D049817C8F285E8D8CFE0910E0481E053
:101B20008E0F80930E048091BB00F0E0E351FC4FD8
:101B300080838091100481115CCF81E08093EB035E
:101B400084EA8093BC001092110424CF85EC80932A
:101B5000BC00109211048091E403803230F4E091D3
:101B6000E403F0E0EC53FC4F10826091E40370E07A
:101B7000E091E503F091E60384EC93E0199510926F
:101B8000E40308CF10920F0434CF1F920F920FB6C8
:101B90000F9211242F933F938F939F93AF93BF93F3
:101BA0008091790390917A03A0917B03B0917C039B
:101BB0003091780323E0230F2D3758F50196A11DAE
:101BC000B11D209378038093790390937A03A093B7
:101BD0007B03B0937C0380917D0390917E03A09161
:101BE0007F03B09180030196A11DB11D80937D03F9
:101BF00090937E03A0937F03B0938003BF91AF9136
:101C00009F918F913F912F910F900FBE0F901F903A
:101C1000189526E8230F0296A11DB11DD2CF1F9261
:101C20000F920FB60F9211240BB60F922F933F9382
:101C30004F935F936F937F938F939F93AF93BF93D4
:101C4000EF93FF9387E494E00E94DD05FF91EF910D
:101C5000BF91AF919F918F917F916F915F914F91C4
:101C60003F912F910F900BBE0F900FBE0F901F90C2
:101C700018951F920F920FB60F9211240BB60F9268
:101C80002F938F939F93EF93FF93E0915704F091DD
:101C900058048081E0915D04F0915E0482FD1DC0D6
:101CA0009081809160048F5F8F732091610482170F
:101CB00041F0E0916004F0E0E95BFB4F958F809389
:101CC0006004FF91EF919F918F912F910F900BBE28
:101CD0000F900FBE0F901F9018958081F2CF1F922A
:101CE0000F920FB60F9211240BB60F92CF92DF9284
:101CF000EF92FF920F931F932F933F934F935F9316
:101D00006F937F938F939F93AF93BF93CF93DF9303
:101D1000EF93FF93C0917603D09177038A819B81E3
:101D2000049709F0C9C08B8D0E94DA0221E0892B4B
:101D300009F420E08E8D922F9827281719F08BA197
:101D40008F5F8BA38AA18917F1F18CA12DE18035DA
:101D500008F42BE08CA1820F8CA39AA38CA1803A6B
:101D600008F46DC08EA19FA1969587959FA38EA321
:101D70008BA1853028F08EA19FA198609FA38EA390
:101D80008CA1805A8CA31BA28DA1882309F488C042
:101D900088A58F5F88A78C3008F451C08EA19FA1C1
:101DA000982F9F73892F86958695887028E0280F35
:101DB000821769F0E82FF0E0E65EFD4F308193175F
:101DC00039F08F5FF5CF8CA18C5E8CA3C7CF80E0FC
:101DD00090E1899F900111248EA19FA136E09695F4
:101DE00087953A95E1F7482F95958795959587952D
:101DF000887098E0980F981749F0E82FF0E0E65EB9
:101E0000FD4F5081451719F08F5FF5CF80E0822B91
:101E1000DE01A359BF4F9C91AE0144595F4F911110
:101E200029C0FA0180839081973018F09081943412
:101E300008F11DA2888999890196998B888BFF9159
:101E4000EF91DF91CF91BF91AF919F918F917F9152
:101E50006F915F914F913F912F911F910F91FF9043
:101E6000EF90DF90CF900F900BBE0F900FBE0F90B2
:101E70001F9018952C9191E0920F9C932C0F3D2F61
:101E8000311DF90181A79C91DA018C91981730F0EE
:101E90001DA281E088A3CE010E94480918A6CFCFD9
:101EA0008EA19FA188339B4051F681E08DA318A697
:101EB000C359DF4F1882C3CF8A819B81039709F0F2
:101EC000BECF8E0100591F4FF801808191E0980F1D
:101ED0009083811113C06E01FEE6CF0ED11CD60196
:101EE000EC91AF56BF4F8C91E81778F0CE010E946D
:101EF00048098C899D8901969D8B8C8BD8018C918A
:101F0000883008F49CCF1C929ACFEC0FFD2FF11D66
:101F1000EF58FF4F608170E07E01BFE6EB0EF11CD1
:101F2000F701808191E0980F908302C075956795C5
:101F30008A95E2F761708C8D0E940303D7018C9122
:101F40008630E0F21C92F60180818F5F8083D6CFCD
:101F5000CF93DF9300D000D01F921F92CDB7DEB792
:101F6000EBE3F4E01382128288EE93E0A0E0B0E0AD
:101F700084839583A683B7832EE232E03183208366
:101F8000E7E4F4E01382128284839583A683B78307
:101F900080E492E09183808385EC90E0958784874C
:101FA00084EC90E09787868780EC90E0918B808B23
:101FB00081EC90E0938B828B82EC90E0958B848B0C
:101FC00086EC90E0978B868B118E128E138E148E7A
:101FD000EBEEF5E01382128282E992E09183808336
:101FE000118687E2848384E1828784E08387148674
:101FF0001092EA051092E90587E38093E805E4EE84
:10200000F4E0138212828FEF8483828783871486A1
:102010001586118A108A138A128A158A148A108EDC
:10202000178A82E592E09183808380ED97E0928F1A
:10203000818F8BE0838F8CE0848F8AE0858F168E72
:10204000178E88E0E2E1F2E0DE01119601900D9238
:102050008A95E1F788E0FE013196A5E5B5E00190AB
:102060000D928A95E1F728960FB6F894DEBF0FBE61
:10207000CDBFDF91CF910895CF93DF93CDB7DEB77A
:10208000E4970FB6F894DEBF0FBECDBF789484B549
:10209000826084BD84B5816084BD85B5826085BD64
:1020A00085B5816085BD80916E00816080936E00F2
:1020B00010928100809181008260809381008091E4
:1020C0008100816080938100809180008160809395
:1020D00080008091B10084608093B1008091B00055
:1020E00081608093B0008091910082608093910024
:1020F0008091910081608093910080919000816037
:10210000809390008091A10082608093A1008091D3
:10211000A10081608093A1008091A00081608093E4
:10212000A000809121018260809321018091210192
:102130008160809321018091200181608093200142
:1021400080917A00846080937A0080917A00826026
:1021500080937A0080917A00816080937A008091E8
:102160007A00806880937A001092C100E091570451
:10217000F091580482E08083E0915304F09154047C
:102180001082E0915504F091560480E18083109212
:102190005F04E0915B04F0915C0416E01083E09131
:1021A0005904F0915A04808180618083E091590440
:1021B000F0915A04808188608083E0915904F09105
:1021C0005A04808180688083E0915904F0915A0418
:1021D00080818F7D808386E30E94AC031CA38E01E7
:1021E0000F5F1F4F7E012FE1E20EF11CD801119607
:1021F0001C921E9213961C921E92129715961C9278
:102200001E92149761E070E090E080E00E948D18CB
:10221000009709F4F3C2F80191838083138212823C
:1022200024813581232B11F4DC011C92D8011596F1
:102230001C921E9214976CE972E08D919C910E9401
:102240007C19EAC256E06516710409F4AFC108F4BE
:1022500032C197E06916710409F021C30E94D809C0
:1022600060E080E00E94A60962E473E08BEE95E0F6
:102270000E94CB0A61E080E00E94A60960E573E05D
:102280008BEE95E00E94CB0A240135018FA198A521
:10229000A9A5BAA5481A590A6A0A7B0A1016110696
:1022A0000CF084C202531109AE014C5D5F4FBE01B8
:1022B000615E7F4F84EE94E00E94D10B882381F011
:1022C000B301A20187E494E00E944B0A60E473E04A
:1022D00087E494E00E94CB0ACE014F960E94380A10
:1022E000C8010E94F30468EC70E080E090E00E9476
:1022F0002305D4CF81EE92E00E94380A62E086E0A6
:102300000E94700362E087E00E94700362E088E050
:102310000E94700362E082E00E94700381E080937B
:1023200017048DE0809339041092180410923A0437
:1023300083E890E00E946E020E940C040E94CD0A85
:1023400042E0242E312CABC20E94C90398AB8FA768
:10235000BC01990F880B990B0E940D1528EE34EBE8
:1023600041E85CE30E9448152BEA3AEA4EE051E46A
:102370000E9478160E941B170E94E5162B013C0153
:10238000A1E14A165104610471042CF060E1462E6B
:10239000512C612C712C60E08CE00E94A609B301E5
:1023A000A2014C3051056105710524F44CE050E068
:1023B00060E070E08BEE95E00E944B0A60E08FE0F9
:1023C0000E94A60960E28BEE95E00E94620560E043
:1023D0008EE00E94A60960E28BEE95E00E94620505
:1023E00086E00E94DA02892B09F059C286E00E9439
:1023F000DA02892BD9F334E0232E312C50C20E940B
:10240000C90328E730E0DC010E94711620E83CE0B7
:1024100040E050E00E94061669017A0161E08AE01E
:102420000E94A609B701A6018BEE95E00E944B0A17
:10243000B4E6CB16D104E104F104C4F461E08CE00D
:102440000E94A60960E28BEE95E00E946205EAE038
:10245000CE16D104E104F1044CF461E08BE00E945B
:10246000A60960E28BEE95E00E94620586E00E947C
:10247000DA02892B91F086E00E94DA02019709F0D6
:102480000EC287E00E94DA02892B09F008C287E0B9
:102490000E94DA02892BD9F353CF87E00E94DA0237
:1024A000019749F786E00E94DA02892BD9F355E0BB
:1024B000252E312CF4C162E088E00E94A60987E055
:1024C0000E94DA02892BB1F46FE073E08BEE95E0A5
:1024D0000E94CB0A62E088E00E94A6096FEB72E0DE
:1024E0008BEE95E00E94CB0A87E00E94DA02892BEE
:1024F000D9F381CF88E00E94DA020197D1F46FE02E
:1025000073E08BEE95E00E94CB0A62E088E00E94C7
:10251000A6096FEB72E08BEE95E00E94CB0A61E0BA
:1025200083E00E94030360E084E00E940303130140
:10253000B6C188E00E94DA02892B09F0B0C16FE0D1
:1025400073E08BEE95E00E94CB0A62E088E00E9487
:10255000A60962EC72E08BEE95E00E94CB0A60E087
:1025600083E00E94030361E084E00E94030386E0AD
:102570000E94DA02892B09F092C160E173E08BEED0
:1025800095E00E94CB0A62E088E00E94A60986E0FE
:102590000E94DA02892BD9F368E173E08BEE95E0B3
:1025A0000E94CB0A26E0222E312C79C10E945605CA
:1025B0006FA378A789A79AA70E9456054B015C01D3
:1025C000A8EEB3E0A70196010E9425162B013C015D
:1025D0007C016B0163E080E00E94A60961E273E088
:1025E0008BEE95E00E94CB0AA301920129513C4F4A
:1025F0004F4F5F4F29AB3AAB4BAB5CAB36E023168A
:10260000310409F04CC182E00E94DA02892B09F4FE
:10261000A0C067E373E0CE014F960E948319892B17
:1026200009F097C0AE014C5D5F4FBE01615E7F4F08
:1026300084EE94E00E94D10B2FA138A549A55AA59C
:10264000821A930AA40AB50A882381F0B501A4016D
:1026500087E494E00E944B0A60E473E087E494E02E
:102660000E94CB0ACE014F960E94380A29A93AA9A6
:102670004BA95CA9281539054A055B058CF14FA5C6
:1026800058A9C801041715070CF08DC00E94F30467
:102690000E5F1F4F0E9456054B015C0163E08BE00B
:1026A0000E94A6098FA198A5A9A5BAA5881A990A7A
:1026B000AA0ABB0AC301B201681979098A099B09F0
:1026C00028EE33E040E050E00E9406162BA73CA71E
:1026D0004DA75EA7BA01A9018BEE95E00E944B0AB7
:1026E0002BA53CA54DA55EA5243631054105510518
:1026F0005CF563E08DE00E94A60960E28BEE95E058
:102700000E9462058BA59CA5ADA5BEA50A97A10553
:10271000B10574F460E28BEE95E00E94620563E01F
:102720008CE00E94A60960E28BEE95E00E946205B3
:102730002BA53CA54DA55EA512161306140615067D
:102740001CF097E0292E312C0E9456054B015C01AC
:1027500055CF0E94D80960E080E00E94A6096DE292
:1027600073E08BEE95E00E94CB0A90E080E00E943F
:10277000F30460ED77E080E090E00E94230581E0C3
:1027800090E09093EA058093E9058CE393E00E9442
:10279000380A86E0ADA1BEA11D928A95E9F72224F0
:1027A0002394312C7CC00E94F30474CF62E080E05B
:1027B0000E94A6096DE573E08BEE95E00E94CB0ABE
:1027C0008CE393E00E94380A68E873E180E090E0CF
:1027D0000E94230563E080E00E94A60961E773E0A0
:1027E0008BEE95E00E94CB0A68EB7BE080E090E006
:1027F0000E9423050E94CD0A1F8ED1CFD8018D9152
:102800009C91009711F00E940418F8011182108227
:1028100015821482138212820A5F1F4FE016F1069E
:1028200009F0E4CC87E38093E80581E090E09093A1
:10283000EA058093E90584EE94E00E94070C81117B
:1028400004C085ED92E00E94380A18AA1FA610E085
:1028500000E022242394312C812C912C5401C12C92
:10286000D12C76011FA218A619A61AA6FE017F96E2
:10287000FEA3EDA36090E9057090EA05F4E06F1601
:10288000710409F4BCCD08F0DDCC31E063167104AD
:1028900009F430CD42E06416710409F455CD98E096
:1028A0002916310424F43092EA052092E90569E101
:1028B00070E080E090E00E942305DCCF8F929F9231
:1028C000AF92BF92CF92DF92EF92FF92CF93DF93BE
:1028D000EC01688179818A819B816115710581058F
:1028E000910521F464E279ED8BE597E02DE133EF7A
:1028F00041E050E00E94061649015A019B01AC01DB
:10290000A7EAB1E40E9425166B017C01ACEEB4EF9E
:10291000A50194010E943316C60ED71EE81EF91EAB
:10292000F7FE06C081E0C81AD108E10880E8F80A7D
:10293000C882D982EA82FB82C701B6019F77DF9104
:10294000CF91FF90EF90DF90CF90BF90AF909F908E
:102950008F9008958F929F92AF92BF92CF92DF9205
:10296000EF92FF9260910002709101028091020249
:1029700090910302611571058105910521F464E2CE
:1029800079ED8BE597E02DE133EF41E050E00E94D7
:10299000061649015A019B01AC01A7EAB1E40E9465
:1029A00025166B017C01ACEEB4EFA50194010E94E9
:1029B0003316C60ED71EE81EF91EF7FE06C081E0CC
:1029C000C81AD108E10880E8F80AC0920002D09243
:1029D0000102E0920202F0920302C701B6019F7762
:1029E000FF90EF90DF90CF90BF90AF909F908F902F
:1029F0000895609300027093010280930202909305
:102A000003020895FB01DC0102C005900D924150C4
:102A10005040D8F70895E89409C097FB3EF490958C
:102A20008095709561957F4F8F4F9F4F9923A9F0A7
:102A3000F92F96E9BB279395F69587957795679536
:102A4000B795F111F8CFFAF4BB0F11F460FF1BC07A
:102A50006F5F7F4F8F4F9F4F16C0882311F096E90D
:102A600011C0772321F09EE8872F762F05C06623BB
:102A700071F096E8862F70E060E02AF09A95660F74
:102A8000771F881FDAF7880F9695879597F908952D
:102A90000E945B150C94CC150E94BE1538F00E9464
:102AA000C51520F0952311F00C94B5150C94BB15A9
:102AB00011240C9400160E94DD1570F3959FC1F34C
:102AC000950F50E0551F629FF001729FBB27F00DDC
:102AD000B11D639FAA27F00DB11DAA1F649F662731
:102AE000B00DA11D661F829F2227B00DA11D621F80
:102AF000739FB00DA11D621F839FA00D611D221F3A
:102B0000749F3327A00D611D231F849F600D211D1D
:102B1000822F762F6A2F11249F5750409AF0F1F0A0
:102B200088234AF0EE0FFF1FBB1F661F771F881F09
:102B300091505040A9F79E3F510580F00C94B51577
:102B40000C9400165F3FE4F3983ED4F38695779596
:102B50006795B795F795E7959F5FC1F7FE2B880FAF
:102B6000911D9695879597F9089597F99F6780E845
:102B700070E060E008959FEF80EC089500240A94CF
:102B80001616170618060906089500240A94121648
:102B90001306140605060895092E0394000C11F47B
:102BA000882352F0BB0F40F4BF2B11F460FF04C028
:102BB0006F5F7F4F8F4F9F4F089557FD9058440F81
:102BC000551F59F05F3F71F04795880F97FB991F8C
:102BD00061F09F3F79F08795089512161306140649
:102BE000551FF2CF4695F1DF08C0161617061806D6
:102BF000991FF1CF86957105610508940895E894B1
:102C0000BB2766277727CB0197F90895052E97FBF9
:102C10001EF400940E941D1657FD07D00E9438161E
:102C200007FC03D04EF40C941D165095409530953A
:102C300021953F4F4F4F5F4F089590958095709528
:102C400061957F4F8F4F9F4F08950E945A16A59F01
:102C5000900DB49F900DA49F800D911D1124089597
:102C6000B7FF0C9425160E942516821B930B08951E
:102C7000A1E21A2EAA1BBB1BFD010DC0AA1FBB1F80
:102C8000EE1FFF1FA217B307E407F50720F0A21BF2
:102C9000B30BE40BF50B661F771F881F991F1A945F
:102CA00069F760957095809590959B01AC01BD0189
:102CB000CF010895A29FB001B39FC001A39F700DE3
:102CC000811D1124911DB29F700D811D1124911D34
:102CD0000895EE0FFF1F881F8BBF0790F691E02D20
:102CE00019940E945A16B7FF0895821B930B0895FA
:102CF0005058BB27AA270E9490160C94CC150E940E
:102D0000BE1538F00E94C51520F039F49F3F19F424
:102D100026F40C94BB150EF4E095E7FB0C94B51566
:102D2000E92F0E94DD1558F3BA176207730784076D
:102D3000950720F079F4A6F50C94FF150EF4E095B4
:102D40000B2EBA2FA02D0B01B90190010C01CA0165
:102D5000A0011124FF27591B99F0593F50F4503E10
:102D600068F11A16F040A22F232F342F4427585F02
:102D7000F3CF469537952795A795F0405395C9F71A
:102D80007EF41F16BA0B620B730B840BBAF09150D2
:102D9000A1F0FF0FBB1F661F771F881FC2F70EC071
:102DA000BA0F621F731F841F48F487957795679544
:102DB000B795F7959E3F08F0B0CF9395880F08F030
:102DC0009927EE0F9795879508950E94EC166894C1
:102DD000B1110C94001608950E94E51588F09F57D4
:102DE00098F0B92F9927B751B0F0E1F0660F771F2F
:102DF000881F991F1AF0BA95C9F714C0B13091F025
:102E00000E94FF15B1E008950C94FF15672F782FED
:102E10008827B85F39F0B93FCCF3869577956795E9
:102E2000B395D9F73EF490958095709561957F4F55
:102E30008F4F9F4F08950E94E515E8F09E37E8F008
:102E40009639B8F49E3848F4672F782F8827985F12
:102E5000F9CF86957795679593959539D0F3B62FE9
:102E6000B1706B0F711D811D20F487957795679563
:102E700093950C943F170C945A170C9400168823C2
:102E800071F4772321F09850872B762F07C06623A3
:102E900011F499270DC09051862B70E060E02AF064
:102EA0009A95660F771F881FDAF7880F9695879592
:102EB00097F908959F3F31F0915020F487957795C9
:102EC0006795B795880F911D9695879597F9089501
:102ED0000F931F93CF93DF938230910510F482E01C
:102EE00090E0E091FA05F091FB0530E020E0B0E0E1
:102EF000A0E0309799F42115310509F44AC0281B48
:102F0000390B24303105D8F58A819B816115710513
:102F100089F1FB0193838283FE0111C040815181BD
:102F20000281138148175907E0F04817590799F4AF
:102F3000109761F012960C93129713961C93329689
:102F4000CF01DF91CF911F910F9108950093FA0562
:102F50001093FB05F4CF2115310551F042175307AB
:102F600038F0A901DB019A01BD01DF01F801C1CFF1
:102F7000EF01F9CF9093FB058093FA05CDCFFE01C9
:102F8000E20FF31F819391932250310939832883F3
:102F9000D7CF2091F8053091F905232B41F42091EA
:102FA0000602309107023093F9052093F80520912D
:102FB0000402309105022115310541F42DB73EB7C9
:102FC0004091080250910902241B350BE091F8054D
:102FD000F091F905E217F307A0F42E1B3F0B281719
:102FE000390778F0AC014E5F5F4F2417350748F082
:102FF0004E0F5F1F5093F9054093F805819391930D
:103000009FCFF0E0E0E09CCFCF93DF930097E9F013
:10301000FC01329713821282A091FA05B091FB0550
:10302000ED0130E020E01097A1F420813181820F82
:10303000931F2091F8053091F9052817390709F0F9
:1030400061C0F093F905E093F805DF91CF91089501
:10305000EA01CE17DF07E8F54A815B819E01411541
:103060005105B1F7E901FB83EA8349915991C40FF6
:10307000D51FEC17FD0761F4808191810296840FC2
:10308000951FE90199838883828193819B838A8339
:10309000F0E0E0E012968D919C9113970097B9F5BE
:1030A0002D913C911197CD010296820F931F209193
:1030B000F8053091F9052817390739F6309751F599
:1030C0001092FB051092FA05B093F905A093F8054C
:1030D000BCCFD383C28340815181840F951FC81711
:1030E000D90761F44E5F5F4F88819981480F591F5E
:1030F000518340838A819B8193838283211531058B
:1031000009F0B0CFF093FB05E093FA059ECFFD01E7
:10311000DC01C0CF13821282D7CF4F925F926F92A1
:103120007F928F929F92AF92BF92CF92DF92EF9257
:10313000FF920F931F93CF93DF938C01009799F425
:10314000CB01DF91CF911F910F91FF90EF90DF9016
:10315000CF90BF90AF909F908F907F906F905F9037
:103160004F900C946817FC01E60FF71F9C0122504A
:103170003109E217F30708F4AEC0D901CD91DC9113
:103180001197C617D70720F1C530D10578F0CE01C9
:1031900004978617970750F0C61BD70B2297C19349
:1031A000D1936D937C93CF010E940418C801DF91E5
:1031B000CF911F910F91FF90EF90DF90CF90BF9034
:1031C000AF909F908F907F906F905F904F900895F9
:1031D0005B01AC1ABD0A4C018C0E9D1EA091FA0534
:1031E000B091FB05512C412CF12CE12C109731F5BD
:1031F0008091F8059091F9058815990509F05CC052
:103200004616570608F058C08091040290910502B6
:10321000009741F48DB79EB7409108025091090282
:10322000841B950BE817F90708F055C0F093F905D2
:10323000E093F805F90171836083B8CF8D919C917B
:10324000119712966C90129713967C901397A8156D
:10325000B90559F56C0142E0C40ED11CCA14DB0457
:1032600020F1AC014A195B09DA011296159780F03A
:103270006282738251834083D9016D937C93E11400
:10328000F10471F0D7011396FC93EE9312978ECF51
:1032900022968C0F9D1FF90191838083F301EFCF5C
:1032A000F093FB05E093FA0581CF4816590608F420
:1032B0002C017D01D3019ACFCB010E9468177C01BC
:1032C000009749F0AE01B8010E947319C8010E942D
:1032D000041887016BCF10E000E068CF81E090E038
:1032E000F8940C949D19FB01DC0102C001900D9231
:1032F00041505040D8F70895FB01DC0101900D9238
:103300000020E1F70895FB0151915523A9F0BF0179
:10331000DC014D9145174111E1F759F4CD010190C0
:10332000002049F04D9140154111C9F3FB014111B5
:0E333000EFCF81E090E001970895F894FFCF71
:10333E00010000000000FC058000000040001400A9
:10334E0054002A2A2A2A2A2A382C0D0E1315161949
:10335E001A1C232526292A2C3234000000003F0295
:10336E0012027309E8010B02F801E90100000000E6
:10337E00FF05690596054C06C705A505B9050000AC
:10338E0000009E07790B070CE808D10BA1079F07D9
:10339E005A070807D90610077D0BA906D306D006D3
:1033AE00CD06CA06C306D606C006BD06BA06B706C1
:1033BE00B306AF06AB06A906A506A1069D0600003C
:1033CE000000EB096905730972090D0A0053706557
:1033DE0065642852504D293A20300044757261744C
:1033EE00696F6E3A2030005374617475733A2044DD
:1033FE00495341524D45440054696D65206C6566D4
:10340E00743A203000696E6974206661696C656477
:10341E00004E41534120566573746962756C61723A
:10342E00204368616972202D2D204C6F6164696E96
:10343E006720696E746572666163652E2E2E00209C
:10344E00202020202020200041524D45445F4F5027
:10345E000054696D65206C6566743A2000454D45D3
:10346E005247454E43592053544F5000454F460046
:10347E002C005465737420436F6D706C6574650019
:10348E00536C6F77696E6720646F776E0053617649
:10349E00696E67206461746120746F2066696C6563
:0634AE0000446F6E650092
:00000001FF
