:100000000C9476010C94A7010C94A7010C94A70101
:100010000C94A7010C94A7010C94A7010C94A701C0
:100020000C94A7010C94A7010C94A7010C94A701B0
:100030000C94A7010C94A7010C94A7010C94A701A0
:100040000C94A7010C94ED080C94A7010C94A70143
:100050000C94A7010C94A7010C94A7010C944308DD
:100060000C94A7010C94B7080C948D080C94A7016C
:100070000C94A7010C94A7010C94A7010C94A70160
:100080000C94A7010C94A7010C94A7010C94A70150
:100090000C94A7010C94A7010C94A7010C94A70140
:1000A0000C94A7010C94A7010C94A7010C94A70130
:1000B0000C94A7010C94A7010C94A7010C94A70120
:1000C0000C94A7010C94A7010C94A7010C94A70110
:1000D0000C94A7010C94A7010C94A7010C94A70100
:1000E0000C94A7010C9430060C941E060C94590431
:1000F0000C9402020C943D060C9447060C94C70124
:100100000C9434060C94CD010C9428060C941F0713
:100110000C94F0010C94FE010C9457040C94D5013E
:100120000C9455070C9456040C941A060C94DC019C
:100130000C94E6010C9485060C9426060C94F401AC
:100140000C9407030C9456060C9443030C94EF078D
:100150000C941D070C9465030C9453060C94070231
:100160000C94E2010C9422060C94FA010C944D06B6
:100170000C949D030C948D060C94EC010C94260AAF
:100180000C94D7060C9434030C9457030C943A0641
:100190000C942C060C94EA030C9408020C94A00511
:1001A0000C9450060C9440060C9437060C944A06A6
:1001B0000C94D1010C94D9010C940C0200000100A4
:1001C0000800400000010004050D0000210024008B
:1001D00027002A002D003000330001010000040137
:1001E00007010A0100002200250028002B002E0034
:1001F0003100340002010000050108010B0100007C
:1002000020002300260029002C002F0032000001CE
:100210000000030106010901050505050705080899
:100220000808020202020A0A080804040404010180
:100230000101010101010303030303030303040795
:1002400007070C0C0C0C0C0C0C0C0202020206062C
:100250000606060606060B0B0B0B0B0B0B0B01021F
:1002600010202008081020401020408002010201C8
:100270000804020101020408102040808040201080
:1002800008040201800402018040201008040201D9
:100290000804020101020408102040800102040841
:1002A0001020408000000A0B02090C0D0E08070305
:1002B0000401000000000000000000000000000039
:1002C000000000000000000000000000000000002E
:1002D00012111000000000000000000000000000EB
:1002E00000000000000000000000260A11241FBECC
:1002F000CFEFD1E2DEBFCDBF00E00CBF13E0A0E046
:10030000B2E0E2E0FCE100E00BBF02C007900D921A
:10031000A430B107D9F724E0A4E0B3E001C01D92F6
:10032000A03BB207E1F711E0C6E7D1E000E006C06C
:1003300021970109802FFE010E94C40CC537D10707
:1003400080E00807A9F70E94970A0C94FF0D0C940F
:1003500000008150823108F05AC0E82FF0E0882771
:10036000EB54FE4F8F4F0C94C40CD501D901C7013B
:10037000CD01D1010702DC01E201E601EC01F0014F
:10038000F401FA01FE010702020208020C02809148
:1003900080008F77809380000895809180008F7D0A
:1003A000F9CF80918000877FF5CF84B58F7784BDAA
:1003B000089584B58F7DFBCF8091B0008F778093B7
:1003C000B00008958091B0008F7DF9CF80919000AA
:1003D0008F77809390000895809190008F7DF9CF62
:1003E00080919000877FF5CF8091A0008F778093D8
:1003F000A00008958091A0008F7DF9CF8091A0008A
:10040000877FF5CF809120018F7780932001089519
:10041000809120018F7DF9CF80912001877FF5CFDA
:10042000CF93DF93282F30E0F901EC55FD4F8491F5
:10043000F901E25AFD4FD491F901E85EFD4FC491F4
:10044000CC23A1F081110E94A901EC2FF0E0EE0F66
:10045000FF1FE250FE4FA591B491EC91ED2381E096
:1004600090E009F480E0DF91CF91089580E090E082
:10047000FACF1F93CF93DF93282F30E0F901EC558B
:10048000FD4F8491F901E25AFD4FD491F901E85EE4
:10049000FD4FC491CC23A9F0162F81110E94A90110
:1004A000EC2FF0E0EE0FFF1FEC51FE4FA591B49141
:1004B0008FB7F894EC91111108C0D095DE23DC932E
:1004C0008FBFDF91CF911F910895DE2BF8CFCF938F
:1004D000DF9390E0FC01E25AFD4F2491885E9D4F2E
:1004E000FC0184918823C9F090E0880F991FFC01DA
:1004F000E653FE4FA591B491FC01EC51FE4FC5911E
:10050000D49161110DC09FB7F8948C9120958223EE
:100510008C938881282328839FBFDF91CF910895F2
:10052000623051F49FB7F8943C91822F80958323D9
:100530008C93E8812E2BEFCF8FB7F894EC912E2B74
:100540002C938FBFEACF3FB7F89480910B03909123
:100550000C03A0910D03B0910E0326B5A89B05C016
:100560002F3F19F00196A11DB11D3FBFBA2FA92F32
:10057000982F8827BC01CD01620F711D811D911D2F
:1005800042E0660F771F881F991F4A95D1F708959B
:100590008F929F92AF92BF92CF92DF92EF92FF9293
:1005A0006B017C010E94A3024B015C01C114D104C8
:1005B000E104F104B9F00E94A302681979098A09DB
:1005C0009B09683E73408105910580F321E0C21AC2
:1005D000D108E108F10888EE880E83E0981EA11C7E
:1005E000B11CE4CFFF90EF90DF90CF90BF90AF9021
:1005F0009F908F9008952FB7F894609107037091A2
:1006000008038091090390910A032FBF0895AF92C8
:10061000BF92CF92DF92EF92FF920F931F93CF93EF
:10062000DF936C017B018B01040F151FEB015E0151
:10063000AE18BF08C017D10759F06991D601ED91E6
:10064000FC910190F081E02DC6011995892B79F775
:10065000C501DF91CF911F910F91FF90EF90DF9037
:10066000CF90BF90AF900895FC01538D448D252FFE
:1006700030E0842F90E0821B930B541710F0CF963C
:10068000089501970895FC01918D828D981761F06E
:10069000A28DAE0FBF2FB11D5D968C91928D9F5F85
:1006A0009F73928F90E008958FEF9FEF0895FC0164
:1006B000918D828D981731F0828DE80FF11D858D17
:1006C00090E008958FEF9FEF0895FC01918D228DAA
:1006D000892F90E0805C9F4F821B91098F7399272F
:1006E00008958FE093E00E94650321E0892B09F4CF
:1006F00020E0822F0895FC01A48DA80FB92FB11D11
:10070000A35ABF4F2C91848D90E001968F73992747
:10071000848FA689B7892C93A089B1898C91837025
:1007200080648C93938D848D981306C00288F3891E
:10073000E02D80818F7D80830895EF92FF920F934B
:100740001F93CF93DF93EC0181E0888F9B8D8C8D7D
:1007500098131AC0E889F989808185FF15C09FB771
:10076000F894EE89FF896083E889F9898081837034
:10077000806480839FBF81E090E0DF91CF911F91E3
:100780000F91FF90EF900895F62E0B8D10E00F5F04
:100790001F4F0F731127E02E8C8D8E110CC00FB6DA
:1007A00007FCFACFE889F989808185FFF5CFCE0172
:1007B0000E947B03F1CFEB8DEC0FFD2FF11DE35A6F
:1007C000FF4FF0829FB7F8940B8FEA89FB898081F5
:1007D0008062CFCFCF93DF93EC01888D8823B9F06F
:1007E000AA89BB89E889F9898C9185FD03C080813C
:1007F00086FD0DC00FB607FCF7CF8C9185FFF2CFB9
:10080000808185FFEDCFCE010E947B03E9CFDF9190
:10081000CF91089580E090E0892B29F00E94710328
:1008200081110E94000080E090E0892B49F080E077
:1008300090E0892B29F00E94000081110E940000A5
:1008400080E090E0892B49F080E090E0892B29F04E
:100850000E94000081110E94000080E090E0892B3E
:1008600049F080E090E0892B29F00E94000081117E
:100870000C9400000895862720E1829FB001112486
:100880008627482F50E0292F382FCA0164E095951C
:1008900087956A95E1F728273927CA0173E0880F01
:1008A000991F7A95E1F782279327089508958CE39D
:1008B00008956F927F928F929F92AF92BF92CF9244
:1008C000DF92EF92FF920F931F93CF93DF934D33FD
:1008D00088F0712C872DDF91CF911F910F91FF90A0
:1008E000EF90DF90CF90BF90AF909F908F907F90D0
:1008F0006F900895042F5B01EC01E881F981008875
:10090000F189E02D1995E881F9810688F789E02DB4
:10091000CE011995782E8823E1F27E0129E7E20EB7
:10092000F11C17E0100F612F8FEF9FEF0E943B0427
:10093000E12FF0E064E0F595E7956A95E1F7EE5E6A
:10094000FD4F2081F70120831F70E12FF0E0EE5E64
:10095000FD4F2081FE01E658FF4F20831A85612F4D
:100960000E943B04E12FF0E074E0F595E7957A955D
:10097000E1F7EE5EFD4F2081FE01E558FF4F208339
:100980001F70E12FF0E0EE5EFD4F2081FE01E45884
:10099000FF4F20831B85612F0E943B04E12FF0E075
:1009A000A4E0F595E795AA95E1F7EE5EFD4F20816D
:1009B000FE01E358FF4F20831F70E12FF0E0EE5E51
:1009C000FD4F2081FE01E258FF4F20831C85612FDF
:1009D0000E943B04E12FF0E0B4E0F595E795BA956D
:1009E000E1F7EE5EFD4F2081FE01E158FF4F2083CD
:1009F0001F70E12FF0E0EE5EFD4F2081FE01E05818
:100A0000FF4F20831D85612F0E943B04E12FF0E002
:100A100024E0F595E7952A95E1F7EE5EFD4F2081FC
:100A2000FE01EF57FF4F20831F70E12FF0E0EE5ED5
:100A3000FD4F2081FE01EE57FF4F208365014701E6
:100A400010E0A00EB11EF2E08F0E911CCA14DB0460
:100A5000E9F0F60161906F01662D0E943B04E62DDE
:100A6000F0E054E0F595E7955A95E1F7EE5EFD4F1D
:100A70002081F4012087F6013197E081EF70F0E0EA
:100A8000EE5EFD4F2081F4012187DDCF98012B5FC1
:100A90003F4F220F331F80959095D701A20FB31FB0
:100AA000FC0154E0F695E7955A95E1F7EF70FF27C2
:100AB000EE5EFD4F30813C93F801EE0FFF1FBF014A
:100AC0006E0D7F1DAC014F7055274E5E5D4FFA01D4
:100AD0003081FB0133870A5F1F4F000F111F0E0D7E
:100AE0001F1DFC01EF2FFF27E295EF70EE5EFD4F1B
:100AF0003081F8013083E92FFF27EF70FF27EE5E8A
:100B0000FD4F808113968C93FE01E150FF4F245FCF
:100B100020838A819B81039709F4DCCEE159F10996
:100B2000108231961082319610826F8D81E0682795
:100B30008D8D0E94390283E090E09B838A83CACE28
:100B4000EF92FF921F93CF93DF93FC0122813381B9
:100B50002330310509F452C0EC018281938104975E
:100B600061F0678D858D0E94390260E08C8D0E9456
:100B7000390284E090E09B838A8388A18823E9F08E
:100B800010E08FEF9FEF7E01FDE6EF0EF11CF70105
:100B90002081121740F4FE01E10FF11D61A50E94B2
:100BA0003B041F5FF4CF883B904F71F0888999898F
:100BB0000196998B888B19A218A289A1DF91CF91F8
:100BC0001F91FF90EF9008958AA58E838BA58F8348
:100BD0008CA588878DA589878D81811107C09E810D
:100BE0008C81981719F08E818F3F31F78A899B8904
:100BF00001969B8B8A8B81E089A3DECF80E0DECFDC
:100C0000CF93DF93FC01228133812230310569F0DB
:100C1000EC01678D858D0E94390260E08C8D0E9409
:100C2000390282E090E09B838A83DF91CF9108951F
:100C300081E00895FC01848995890895FC018289E9
:100C400093890895FC0180899189089580E0089531
:100C5000FC01738362830895FC018281938108956E
:100C6000FC01868597850895FC0181850895FC0126
:100C700080850895FC0187810895FC01868108958F
:100C80004095FC0125854223642B65870895FC016E
:100C900064870895FC0163870895FC0162870895C5
:100CA000FC0164830895FC01658308958F929F92EF
:100CB000AF92BF92CF92DF92EF92FF92CF93DF93EA
:100CC000EC016B010E94FB024B015C01F12CE12C59
:100CD0000E94FB02681979098A099B096C157D0538
:100CE0008E059F0580F48A819B81039789F381E0BB
:100CF000DF91CF91FF90EF90DF90CF90BF90AF90BA
:100D00009F908F90089580E0F3CFFC012281338182
:100D100023303105D1F381E008954F925F926F92B5
:100D20007F928F929F92AF92BF92CF92DF92EF927B
:100D3000FF920F931F93CF93DF93EC016B018A0116
:100D40000E94FB022B013C01F12CE12C4801B12C4B
:100D5000A12C0E94FB0264197509860997096C157C
:100D60007D058E059F0588F4E881F9810680F7816D
:100D7000E02DCE011995811109C00115110549F326
:100D8000C501B4010E94C802E4CF80E0DF91CF9199
:100D90001F910F91FF90EF90DF90CF90BF90AF9099
:100DA0009F908F907F906F905F904F900895CF921B
:100DB000DF92EF92FF920F931F93CF93DF93EC019B
:100DC0008B016B01F12CE12CE881F9810680F78120
:100DD000E02DCE011995811108C001151105A1F36F
:100DE000C701B6010E94C802EFCFDF91CF911F91DA
:100DF0000F91FF90EF90DF90CF900895CF93DF9306
:100E0000FC0101900020E9F73197AF01481B590B15
:100E1000BC018FE093E00E940703EC0142E050E048
:100E200064E772E08FE093E00E9407038C0F9D1F40
:100E3000DF91CF9108950E94F10D0C94680DDF921F
:100E4000EF92FF920F931F93CF93DF93EC017B01FF
:100E50008A01E881F9810680F781E02D1995D82E65
:100E60008823D1F0E114F104B1F00115110599F0D6
:100E7000FE01E359FF4F80818750F8019081891767
:100E800008F48083F801408150E0BE01625D7F4F2D
:100E9000C7010E94F60D19A28D2DDF91CF911F91F0
:100EA0000F91FF90EF90DF9008954F925F926F92B5
:100EB0007F92AF92BF92CF92DF92EF92FF921F93F9
:100EC000CF93DF931F921F92CDB7DEB77C01909333
:100ED00005038093040361E0FC01848D0E94670296
:100EE00060E0F701838D0E94670261E0F701858D64
:100EF0000E946702C7010E940006F701C18CD28CD4
:100F0000C114D10409F444C0F12CE12C83E0CC0CD1
:100F1000DD1CEE1CFF1C8A95D1F79EEBA92E91E0FB
:100F2000B92E11E0412C24E2522E24EF622E712CB6
:100F300042E050E0B501CE0101960E94580C298193
:100F40003A8150E040E0C301B2010E94930CCA0113
:100F5000B901A70196010E94930CDA01C901029719
:100F6000A109B1098D3F9F4FA105B10510F11F5F88
:100F700062E0A60EB11C1730D9F6223031054105CA
:100F8000510530F02115310581E04807510598F0F1
:100F900081E00F900F90DF91CF911F91FF90EF9024
:100FA000DF90CF90BF90AF907F906F905F904F9009
:100FB0000895163069F31092800088E080938100D4
:100FC00080918100182B1093810030938900209329
:100FD000880080916F00826080936F00D9CF8F92DC
:100FE0009F92AF92BF92CF92DF92EF92FF92CF93F8
:100FF000DF93FC012789308D232BB9F1EC010E948E
:10100000FB024B015C0189E0C82ED12CE12CF12CB4
:10101000E881F981008CF18DE02DCE0119958823AE
:1010200021F10E94FB02AB01BC01481959096A0970
:101030007B098F89988DB0E0A0E084179507A607FB
:10104000B707F8F00E94000CA70196010E94610CFE
:101050009B01AC012F5F3F4F4F4F5F4FA4E6B0E0C5
:101060000E94800C0E94C802D3CF81E0DF91CF9113
:10107000FF90EF90DF90CF90BF90AF909F908F90B8
:10108000089580E0F3CF1F920F920FB60F921124B4
:101090002F933F938F939F93AF93BF9380910703B9
:1010A00090910803A0910903B0910A0330910603BF
:1010B00023E0230F2D3758F50196A11DB11D209374
:1010C00006038093070390930803A0930903B0934A
:1010D0000A0380910B0390910C03A0910D03B09132
:1010E0000E030196A11DB11D80930B0390930C0379
:1010F000A0930D03B0930E03BF91AF919F918F9179
:101100003F912F910F900FBE0F901F90189526E8DA
:10111000230F0296A11DB11DD2CF1F920F920FB6C1
:101120000F9211240BB60F922F933F934F935F931F
:101130006F937F938F939F93AF93BF93EF93FF939F
:101140008FE093E00E947B03FF91EF91BF91AF91FD
:101150009F918F917F916F915F914F913F912F91CF
:101160000F900BBE0F900FBE0F901F9018951F92FF
:101170000F920FB60F9211240BB60F922F938F93ED
:101180009F93EF93FF93E0911F03F09120038081E1
:10119000E0912503F091260382FD1DC0908180918E
:1011A00028038F5F8F7320912903821741F0E0910C
:1011B0002803F0E0E15FFC4F958F80932803FF91B7
:1011C000EF919F918F912F910F900BBE0F900FBEBB
:1011D0000F901F9018958081F2CF1F920F920FB63B
:1011E0000F9211240BB60F92CF92DF92EF92FF92E3
:1011F0000F931F932F933F934F935F936F937F931F
:101200008F939F93AF93BF93CF93DF93EF93FF930E
:10121000C0910403D09105038A819B81049709F052
:10122000C9C08B8D0E94100221E0892B09F420E0B7
:101230008E8D922F9827281719F08BA18F5F8BA383
:101240008AA18917F1F18CA12DE1803508F42BE0FA
:101250008CA1820F8CA39AA38CA1803A08F46DC054
:101260008EA19FA1969587959FA38EA38BA1853074
:1012700028F08EA19FA198609FA38EA38CA1805A75
:101280008CA31BA28DA1882309F488C088A58F5F39
:1012900088A78C3008F451C08EA19FA1982F9F730E
:1012A000892F86958695887028E0280F821769F027
:1012B000E82FF0E0EE5EFD4F3081931739F08F5F3D
:1012C000F5CF8CA18C5E8CA3C7CF80E090E1899F85
:1012D000900111248EA19FA136E0969587953A95AD
:1012E000E1F7482F9595879595958795887098E0B3
:1012F000980F981749F0E82FF0E0EE5EFD4F50810F
:10130000451719F08F5FF5CF80E0822BDE01A359DE
:10131000BF4F9C91AE0144595F4F911129C0FA0112
:1013200080839081973018F09081943408F11DA249
:10133000888999890196998B888BFF91EF91DF912C
:10134000CF91BF91AF919F918F917F916F915F915D
:101350004F913F912F911F910F91FF90EF90DF9050
:10136000CF900F900BBE0F900FBE0F901F9018954F
:101370002C9191E0920F9C932C0F3D2F311DF90180
:1013800081A79C91DA018C91981730F01DA281E021
:1013900088A3CE010E94000618A6CFCF8EA19FA1E0
:1013A00088339B4051F681E08DA318A6C359DF4FC7
:1013B0001882C3CF8A819B81039709F0BECF8E012B
:1013C00000591F4FF801808191E0980F908381119F
:1013D00013C06E01FEE6CF0ED11CD601EC91AF56C4
:1013E000BF4F8C91E81778F0CE010E9400068C89DF
:1013F0009D8901969D8B8C8BD8018C91883008F447
:101400009CCF1C929ACFEC0FFD2FF11DEF58FF4F90
:10141000608170E07E01BFE6EB0EF11CF701808178
:1014200091E0980F908302C0759567958A95E2F7D1
:1014300061708C8D0E943902D7018C918630E0F268
:101440001C92F60180818F5F8083D6CFCF93DF938C
:1014500000D000D01F921F92CDB7DEB7EFE0F3E0CF
:101460001382128288EE93E0A0E0B0E0848395833B
:10147000A683B78386E292E09183808385EC90E037
:101480009587848784EC90E09787868780EC90E04E
:10149000918B808B81EC90E0938B828B82EC90E03F
:1014A000958B848B86EC90E0978B868B118E128EB9
:1014B000138E148EECEAF3E0138212828FEF848392
:1014C0008287838714861586118A108A138A128A66
:1014D000158A148A108E178A88E392E0918380839C
:1014E00080ED97E0928F818F8BE0838F8CE0848FEB
:1014F0008AE0858F168E178E88E0EAE0F2E0DE0142
:10150000119601900D928A95E1F788E0FE013196DF
:10151000ADE1B4E001900D928A95E1F728960FB6FF
:10152000F894DEBF0FBECDBFDF91CF9108957894C0
:1015300084B5826084BD84B5816084BD85B58260D8
:1015400085BD85B5816085BD80916E008160809389
:101550006E001092810080918100826080938100F2
:101560008091810081608093810080918000816002
:10157000809380008091B10084608093B10080915D
:10158000B00081608093B000809191008260809370
:1015900091008091910081608093910080919000F2
:1015A0008160809390008091A10082608093A1006F
:1015B0008091A10081608093A1008091A000816052
:1015C0008093A0008091210182608093210180910D
:1015D00021018160809321018091200181608093AD
:1015E000200180917A00846080937A0080917A0053
:1015F000826080937A0080917A00816080937A0083
:1016000080917A00806880937A001092C100E09106
:101610001F03F091200382E08083E0911B03F0918F
:101620001C031082E0911D03F0911E0380E1808372
:1016300010922703E0912303F091240386E0808336
:10164000E0912103F0912203808180618083E09109
:101650002103F0912203808188608083E09121033F
:10166000F0912203808180688083E0912103F091D2
:10167000220380818F7D808387E792E00E94FE06AF
:1016800062E084E00E94670262E082E00E946702FA
:1016900062E083E00E94670261E08DE00E946702E1
:1016A0008CEA93E00E945507882321F085E892E0B8
:1016B0000E94FE06C0E0D1E083E00E941002892B68
:1016C00041F445E061E972E08CEA93E00E9459043C
:1016D000F3CF82E00E941002892BD1F484E00E94B3
:1016E00010020197A9F487E992E00E94FE0646E005
:1016F0006CEA72E08CEA93E00E9459048CEA93E071
:101700000E9485066C2F8DE00E943902CD27D4CF30
:1017100082E00E941002019769F082E00E941002AC
:10172000892BA9F083EB92E00E94FE0645E065EC70
:1017300072E0E0CF84E00E941002892B71F78BECFD
:1017400092E00E94FE0645E06FED72E0D3CF84E0A8
:101750000E941002892B31F785EE92E00E94FE066E
:1017600045E06EEF72E0C6CF8F929F92AF92BF922C
:10177000CF92DF92EF92FF92CF93DF93EC016881DB
:1017800079818A819B81611571058105910521F41B
:1017900064E279ED8BE597E02DE133EF41E050E035
:1017A0000E94610C49015A019B01AC01A7EAB1E416
:1017B0000E94800C6B017C01ACEEB4EFA50194019A
:1017C0000E948E0CC60ED71EE81EF91EF7FE06C03C
:1017D00081E0C81AD108E10880E8F80AC882D982F5
:1017E000EA82FB82C701B6019F77DF91CF91FF901C
:1017F000EF90DF90CF90BF90AF909F908F90089523
:101800008F929F92AF92BF92CF92DF92EF92FF9210
:101810006091000270910102809102029091030296
:10182000611571058105910521F464E279ED8BE57F
:1018300097E02DE133EF41E050E00E94610C490157
:101840005A019B01AC01A7EAB1E40E94800C6B0134
:101850007C01ACEEB4EFA50194010E948E0CC60E83
:10186000D71EE81EF91EF7FE06C081E0C81AD1088F
:10187000E10880E8F80AC0920002D0920102E092EA
:101880000202F0920302C701B6019F77FF90EF902A
:10189000DF90CF90BF90AF909F908F90089560930E
:1018A0000002709301028093020290930302089554
:1018B000FB01DC0102C005900D9241505040D8F769
:1018C0000895052E97FB1EF400940E94780C57FD96
:1018D00007D00E94930C07FC03D04EF40C94780CB4
:1018E00050954095309521953F4F4F4F5F4F08954C
:1018F00090958095709561957F4F8F4F9F4F08957C
:101900000E94B50CA59F900DB49F900DA49F800DD3
:10191000911D11240895B7FF0C94800C0E94800C37
:10192000821B930B0895A1E21A2EAA1BBB1BFD017B
:101930000DC0AA1FBB1FEE1FFF1FA217B307E407AE
:10194000F50720F0A21BB30BE40BF50B661F771F06
:10195000881F991F1A9469F76095709580959095E6
:101960009B01AC01BD01CF010895A29FB001B39FBF
:10197000C001A39F700D811D1124911DB29F700D98
:10198000811D1124911D0895EE0FFF1F881F8BBF2D
:101990000790F691E02D19940F931F93CF93DF9347
:1019A0008230910510F482E090E0E091AE04F09175
:1019B000AF0430E020E0B0E0A0E0309799F42115CA
:1019C000310509F44AC0281B390B24303105D8F5FC
:1019D0008A819B816115710589F1FB019383828363
:1019E000FE0111C0408151810281138148175907BE
:1019F000E0F04817590799F4109761F012960C938C
:101A0000129713961C933296CF01DF91CF911F91BD
:101A10000F9108950093AE041093AF04F4CF2115F5
:101A2000310551F04217530738F0A901DB019A0143
:101A3000BD01DF01F801C1CFEF01F9CF9093AF04F1
:101A40008093AE04CDCFFE01E20FF31F81939193FB
:101A50002250310939832883D7CF2091AC043091AB
:101A6000AD04232B41F420910602309107023093FC
:101A7000AD042093AC04209104023091050221159D
:101A8000310541F42DB73EB740910802509109024B
:101A9000241B350BE091AC04F091AD04E217F30781
:101AA000A0F42E1B3F0B2817390778F0AC014E5FCE
:101AB0005F4F2417350748F04E0F5F1F5093AD045A
:101AC0004093AC04819391939FCFF0E0E0E09CCFF2
:101AD000CF93DF930097E9F0FC01329713821282D3
:101AE000A091AE04B091AF04ED0130E020E010977A
:101AF000A1F420813181820F931F2091AC04309199
:101B0000AD042817390709F061C0F093AD04E093E4
:101B1000AC04DF91CF910895EA01CE17DF07E8F515
:101B20004A815B819E0141155105B1F7E901FB83B3
:101B3000EA8349915991C40FD51FEC17FD0761F451
:101B4000808191810296840F951FE9019983888392
:101B5000828193819B838A83F0E0E0E012968D91ED
:101B60009C9113970097B9F52D913C911197CD0158
:101B70000296820F931F2091AC043091AD04281778
:101B8000390739F6309751F51092AF041092AE0430
:101B9000B093AD04A093AC04BCCFD383C283408187
:101BA0005181840F951FC817D90761F44E5F5F4FAD
:101BB00088819981480F591F518340838A819B8175
:101BC000938382832115310509F0B0CFF093AF04E0
:101BD000E093AE049ECFFD01DC01C0CF13821282E0
:101BE000D7CF81E090E0F8940C94FF0DFB01DC016D
:101BF00002C001900D9241505040D8F70895F894DA
:021C0000FFCF14
:101C0200010000000000B00480002A2A2A2A2A2AA1
:101C1200382C0D0E131516191A1C232526292A2CC9
:101C22003234000000009D0307033403EA03650316
:101C3200430357030000000056041D075507A00583
:101C42001F0759045704D706850656068D06EF0767
:101C5200260650064D064A064706400653063D062E
:101C62003A063706340630062C06280626062206D1
:101C72001E061A060D0A0050726F6772616D20739C
:101C82007461727400696E69742073656E64657242
:101C92000053544F505F0052696768742062757434
:101CA200746F6E2070726573736564005269676841
:101CB200745F004E6F20627574746F6E207072656F
:101CC20073736564004E6F6E655F004C65667420C9
:101CD200627574746F6E2070726573736564004C04
:101CE2006566745F004D756C7469706C6520627511
:101CF20074746F6E73207072657373656400426FE3
:041D020074685F00A2
:00000001FF
