:100000000C9469000C9491000C9491000C94910054
:100010000C9491000C9491000C9491000C9491001C
:100020000C9491000C9491000C9491000C94CA0CC7
:100030000C9491000C9491000C9491000C949100FC
:100040000C94280C0C9491000C94980C0C94720C49
:100050000C9491000C9491000C9491000C949100DC
:100060000C94090B0C949100000001000800400062
:1000700000010004050D00000000240027002A00F4
:1000800000000000250028002B00000000002300D5
:1000900026002900040404040404040402020202E9
:1000A000020203030303030301020408102040803B
:1000B00001020408102001020408102000000008BA
:1000C000000201000003040700000000000000001F
:1000D000FE0D11241FBECFEFD8E0DEBFCDBF12E072
:1000E000A0E0B1E0E6EBFFE202C005900D92A6377A
:1000F000B107D9F724E0A6E7B2E001C01D92AC3FFA
:10010000B207E1F710E0C9E6D0E004C02197FE0194
:100110000E94D214C836D107C9F70E94940E0C94DD
:10012000D9170C940000089508952091C202260F5B
:100130003327331F21323105ECF420911103FC01E8
:1001400090E080E0243069F082E00895A091C2023E
:100150002191AC014E555D4FA40FB52FB11D2C93CD
:100160000196861798F38091C202680F6093C202CD
:1001700080E0089581E008950895E091EA02809179
:10018000E902E81730F4F0E0EF57FD4F808190E08E
:1001900008958FEF9FEF08959091EA028091E90210
:1001A0002FEF3FEF981748F4E92FF0E0EF57FD4F9E
:1001B000208130E09F5F9093EA02C9010895809109
:1001C000E9029091EA02891B990B0895CF92DF9280
:1001D000EF92FF920F931F93CF93DF937C01CB019C
:1001E0008A0120911703222389F0EB016B01C40ED1
:1001F000D51ECC15DD0569F06991D701ED91FC9113
:100200000190F081E02DC7010995F3CF642F0E9482
:100210009500C801DF91CF911F910F91FF90EF9052
:10022000DF90CF900895CF93DF931F92CDB7DEB7C5
:100230006983209117032223F9F020913A03203299
:1002400058F021E030E0FC013383228390E080E02D
:100250000F90DF91CF91089580911803E82FF0E07F
:10026000E75EFC4F998190838F5F809318038093A2
:100270003A0381E090E0ECCF61E0CE0101960E946C
:100280009500F7CF682F8BE393E00C941301833034
:1002900081F028F4813099F08230A9F008958730F8
:1002A000A9F08830C9F08430B1F4809180008F7D4E
:1002B00003C0809180008F7780938000089584B57B
:1002C0008F7784BD089584B58F7DFBCF8091B0007A
:1002D0008F778093B00008958091B0008F7DF9CF23
:1002E000CF93DF93282F30E0F901E454FF4F84913E
:1002F000F901E855FF4FD491F901EC56FF4FC49135
:10030000CC23A1F081110E944701EC2FF0E0EE0F09
:10031000FF1FE657FF4FA591B491EC91ED2381E0CB
:1003200090E009F480E0DF91CF91089580E090E0C3
:10033000FACF1F93CF93DF93282F30E0F901E454D5
:10034000FF4F8491F901E855FF4FD491F901EC5624
:10035000FF4FC491CC23A9F0162F81110E944701B1
:10036000EC2FF0E0EE0FFF1FE058FF4FA591B49186
:100370008FB7F894EC91111108C0D095DE23DC936F
:100380008FBFDF91CF911F910895DE2BF8CF109290
:10039000110381E0809310031092EB0261E082E18F
:1003A0000E94990161E083E10E949901E9EBF0E08C
:1003B00080818E7F808380818D7F808388E480939D
:1003C000B80085E48093BC000895CF93DF9391E05B
:1003D0009093A1028823B9F0C091B800D091BA00DF
:1003E0008091BC008A7B8093BC0060E082E10E9427
:1003F000990160E083E10E9499010E94C701D093B6
:10040000BA00C093B800DF91CF910895CF93DF93E6
:1004100090E0FC01E855FF4F24918C569F4FFC0162
:1004200084918823C9F090E0880F991FFC01EA5855
:10043000FF4FA591B491FC01E058FF4FC591D491B5
:1004400061110DC09FB7F8948C91209582238C93F5
:100450008881282328839FBFDF91CF910895623040
:1004600051F49FB7F8943C91822F809583238C930D
:10047000E8812E2BEFCF8FB7F894EC912E2B2C9395
:100480008FBFEACF8E3008F08E50877080648093E3
:100490007C0080917A00806480937A0080917A0059
:1004A00086FDFCCF8091780090917900089580912D
:1004B000E8040E944202BC01990F880B990B0E942C
:1004C00038132DE032E348EC5DE30E9473130E9481
:1004D00045150E94381320E030E040E052E40E94CD
:1004E00073130E944515CB0108953FB7F89480918E
:1004F0007D0290917E02A0917F02B091800226B58C
:10050000A89B05C02F3F19F00196A11DB11D3FBF4B
:10051000BA2FA92F982F8827BC01CD01620F711D1A
:10052000811D911D42E0660F771F881F991F4A9514
:10053000D1F70895CF92DF92EF92FF920F931F931E
:10054000CF93DF93D0913A0381E0D13208F09CC081
:10055000C09139030E9475026B017C0180911103E7
:1005600081116CC082E08093110381E080931003BD
:100570008FEF80930F0310920E03D0930D03A9E128
:10058000B3E0EDEEF2E080E0D8138DC01092EC0203
:100590008091EC02CC0FC82BC093EC028091EB024F
:1005A000813009F084C01092EB020E9475026B0149
:1005B0007C018091EC028093BB00809113039091A9
:1005C0001403A0911503B0911603892B8A2B8B2B52
:1005D000A1F00E9475020091130310911403209161
:1005E0001503309116036C197D098E099F090617B2
:1005F00017072807390708F442C08091BC0083FD23
:10060000D8CF85EC8093BC000E9475026B017C0101
:1006100080911103823009F44CC080910F038F3F09
:1006200009F469C080910F03803209F466C080919B
:100630000F03803309F463C084E026C08091130364
:1006400090911403A0911503B0911603892B8A2B66
:100650008B2B09F483CF0E94750200911303109134
:10066000140320911503309116036C197D098E092E
:100670009F09061717072807390708F06FCF8091E1
:1006800012030E94E50185E01092180310923A03CC
:1006900010921703DF91CF911F910F91FF90EF9070
:1006A000DF90CF9008959D9191938F5F6DCF85EEF0
:1006B000A9CF8091130390911403A0911503B091D9
:1006C0001603892B8A2B8B2B09F4A2CF0E9475026B
:1006D0000091130310911403209115033091160318
:1006E0006C197D098E099F09061717072807390716
:1006F00008F08ECFC4CF80E0C7CF82E0C5CF83E0C3
:10070000C3CFCF93DF93EC0165E897FF04C0D19589
:10071000C195D10966E881E0809317038DE080934D
:1007200039031092180310923A038BE393E00E946E
:100730001301CE018F7199270E944201CE0125E05D
:10074000959587952A95E1F78F7799270E94420121
:100750000E949A02D093E504C093E404DF91CF9104
:1007600008958F929F92AF92BF92CF92DF92EF92B5
:10077000FF926B017C010E9475024B015C01C11468
:10078000D104E104F104B9F00E94750268197909F5
:100790008A099B09683E73408105910580F321E039
:1007A000C21AD108E108F10888EE880E83E0981E8D
:1007B000A11CB11CE4CFFF90EF90DF90CF90BF90D1
:1007C000AF909F908F9008952FB7F8946091790221
:1007D00070917A0280917B0290917C022FBF0895E4
:1007E000DC01ED91FC910190F081E02D0994AF9234
:1007F000BF92CF92DF92EF92FF920F931F93CF930E
:10080000DF936C017B018B01040F151FEB015E016F
:10081000AE18BF08C017D10759F06991D601ED9104
:10082000FC910190F081E02DC6010995892B79F7A3
:10083000C501DF91CF911F910F91FF90EF90DF9055
:10084000CF90BF90AF900895FC01538D448D252F1C
:1008500030E0842F90E0821B930B541710F0CF965A
:10086000089501970895FC01918D828D981761F08C
:10087000A28DAE0FBF2FB11D5D968C91928D9F5FA3
:100880009F73928F90E008958FEF9FEF0895FC0182
:10089000918D828D981731F0828DE80FF11D858D35
:1008A00090E008958FEF9FEF0895FC01918D228DC8
:1008B000892F90E0805C9F4F821B91098F7399274D
:1008C000089587E493E00E94550421E0892B09F400
:1008D00020E0822F089580E090E0892B29F00E948B
:1008E000610481110C9400000895FC01A48DA80FEF
:1008F000B92FB11DA35ABF4F2C91848D90E0019662
:100900008F739927848FA689B7892C93A089B18981
:100910008C91837080648C93938D848D981306C022
:100920000288F389E02D80818F7D80830895EF9286
:10093000FF920F931F93CF93DF93EC0181E0888F99
:100940009B8D8C8D98131AC0E889F989808185FF69
:1009500015C09FB7F894EE89FF896083E889F9890B
:1009600080818370806480839FBF81E090E0DF910D
:10097000CF911F910F91FF90EF900895F62E0B8D60
:1009800010E00F5F1F4F0F731127E02E8C8D8E111B
:100990000CC00FB607FCFACFE889F989808185FF82
:1009A000F5CFCE010E947504F1CFEB8DEC0FFD2F3A
:1009B000F11DE35AFF4FF0829FB7F8940B8FEA893D
:1009C000FB8980818062CFCFCF93DF93EC01888D4C
:1009D0008823B9F0AA89BB89E889F9898C9185FDBA
:1009E00003C0808186FD0DC00FB607FCF7CF8C9148
:1009F00085FFF2CF808185FFEDCFCE010E94750487
:100A0000E9CFDF91CF910895FC01848995890895FC
:100A1000FC01828993890895FC0180899189089558
:100A200080E00895FC01738362830895FC01828154
:100A300093810895FC01868597850895FC01818541
:100A40000895FC0180850895FC0187810895FC01CB
:100A5000868108954095FC0125854223642B658796
:100A60000895FC0164870895FC0163870895FC01E3
:100A700062870895FC0164830895FC0165830895ED
:100A80008F929F92AF92BF92CF92DF92EF92FF929E
:100A9000CF93DF93EC016B010E94E4034B015C01F7
:100AA000F12CE12C0E94E403681979098A099B0959
:100AB0006C157D058E059F0580F48A819B810397C7
:100AC00089F381E0DF91CF91FF90EF90DF90CF909D
:100AD000BF90AF909F908F90089580E0F3CFFC017E
:100AE0002281338123303105D1F381E008954F9283
:100AF0005F926F927F928F929F92AF92BF92CF92AE
:100B0000DF92EF92FF920F931F93CF93DF93EC014D
:100B10006B018A010E94E4032B013C01F12CE12CC2
:100B20004801B12CA12C0E94E403641975098609BF
:100B300097096C157D058E059F0588F4E881F9817C
:100B40000680F781E02DCE010995811109C00115BC
:100B5000110549F3C501B4010E94B103E4CF80E05F
:100B6000DF91CF911F910F91FF90EF90DF90CF9089
:100B7000BF90AF909F908F907F906F905F904F90BD
:100B80000895CF92DF92EF92FF920F931F93CF932E
:100B9000DF93EC018B016B01F12CE12CE881F981F1
:100BA0000680F781E02DCE010995811108C001155D
:100BB0001105A1F3C701B6010E94B103EFCFDF9188
:100BC000CF911F910F91FF90EF90DF90CF900895FC
:100BD00081E00895862720E1829FB00111248627B5
:100BE000482F50E0292F382FCA0164E0959587954A
:100BF0006A95E1F728273927CA0173E0880F991F02
:100C00007A95E1F782279327089508958CE3089554
:100C10006F927F928F929F92AF92BF92CF92DF920C
:100C2000EF92FF920F931F93CF93DF934D3388F092
:100C3000712C872DDF91CF911F910F91FF90EF9035
:100C4000DF90CF90BF90AF909F908F907F906F90EC
:100C50000895042F5B01EC01E881F9810088F18996
:100C6000E02D0995E881F9810688F789E02DCE010C
:100C70000995782E8823E1F27E0129E7E20EF11C26
:100C800017E0100F612F8FEF9FEF0E94EA05E12F11
:100C9000F0E064E0F595E7956A95E1F7E65EFE4FD2
:100CA0002081F70120831F70E12FF0E0E65EFE4F08
:100CB0002081FE01E658FF4F20831A85612F0E9494
:100CC000EA05E12FF0E074E0F595E7957A95E1F714
:100CD000E65EFE4F2081FE01E558FF4F20831F7026
:100CE000E12FF0E0E65EFE4F2081FE01E458FF4F69
:100CF00020831B85612F0E94EA05E12FF0E0A4E02C
:100D0000F595E795AA95E1F7E65EFE4F2081FE0195
:100D1000E358FF4F20831F70E12FF0E0E65EFE4FA7
:100D20002081FE01E258FF4F20831C85612F0E9425
:100D3000EA05E12FF0E0B4E0F595E795BA95E1F723
:100D4000E65EFE4F2081FE01E158FF4F20831F70B9
:100D5000E12FF0E0E65EFE4F2081FE01E058FF4FFC
:100D600020831D85612F0E94EA05E12FF0E024E039
:100D7000F595E7952A95E1F7E65EFE4F2081FE01A5
:100D8000EF57FF4F20831F70E12FF0E0E65EFE4F2C
:100D90002081FE01EE57FF4F20836501470110E0DF
:100DA000A00EB11EF2E08F0E911CCA14DB04E9F014
:100DB000F60161906F01662D0E94EA05E62DF0E0D4
:100DC00054E0F595E7955A95E1F7E65EFE4F2081F0
:100DD000F4012087F6013197E081EF70F0E0E65EE4
:100DE000FE4F2081F4012187DDCF98012B5F3F4F1B
:100DF000220F331F80959095D701A20FB31FFC01DE
:100E000054E0F695E7955A95E1F7EF70FF27E65E17
:100E1000FE4F30813C93F801EE0FFF1FBF016E0DB6
:100E20007F1DAC014F705527465E5E4FFA01308141
:100E3000FB0133870A5F1F4F000F111F0E0D1F1D8F
:100E4000FC01EF2FFF27E295EF70E65EFE4F308149
:100E5000F8013083E92FFF27EF70FF27E65EFE4F92
:100E6000808113968C93FE01E150FF4F245F208315
:100E70008A819B81039709F4DCCEE159F109108244
:100E800031961082319610826F8D81E068278D8DAA
:100E90000E94990183E090E09B838A83CACEEF92FF
:100EA000FF921F93CF93DF93FC0122813381233084
:100EB000310509F452C0EC0182819381049761F0FD
:100EC000678D858D0E94990160E08C8D0E9499014B
:100ED00084E090E09B838A8388A18823E9F010E076
:100EE0008FEF9FEF7E01FDE6EF0EF11CF7012081F1
:100EF000121740F4FE01E10FF11D61A50E94EA0501
:100F00001F5FF4CF883B904F71F0888999890196D3
:100F1000998B888B19A218A289A1DF91CF911F917B
:100F2000FF90EF9008958AA58E838BA58F838CA563
:100F300088878DA589878D81811107C09E818C81CD
:100F4000981719F08E818F3F31F78A899B89019616
:100F50009B8B8A8B81E089A3DECF80E0DECFCF93AD
:100F6000DF93FC01228133812230310569F0EC01ED
:100F7000678D858D0E94990160E08C8D0E9499019A
:100F800082E090E09B838A83DF91CF910895FC01FA
:100F9000248131E030931703209339031092180312
:100FA00010923A038485862B90E00E9442010C94B3
:100FB0009A02089590E080E008950F931F93CF93D5
:100FC0008C01C62F0E94C7076C2F6460C8010E9465
:100FD000C7076C2F6B7FC8010E94C70783EC90E0A6
:100FE0000197F1F7CF911F910F9108950F931F93E0
:100FF000CF93DF938C01D62FC42F607F642B0E9488
:10100000DD0780E1D89FB00111246C2BC801DF916E
:10101000CF911F910F910C94DD07CF93DF93CDB744
:10102000DEB728970FB6F894DEBF0FBECDBF98E0AD
:10103000EAE0F1E0DE01119601900D929A95E1F758
:101040009091F304961710F46FEF690F262F30E09C
:10105000220F331F41E050E04C0F5D1F240F351F5E
:10106000F9016081680F606840E08BEE94E028969B
:101070000FB6F894DEBF0FBECDBFDF91CF910C94B9
:10108000F60740E061E08BEE94E00E94F6078BE308
:101090009FE10197F1F78091F404882321F060E04B
:1010A00080E00C940D08089541E00E94F60781E06D
:1010B00090E0089585ED8093BC008091130390919A
:1010C0001403A0911503B09116030796A11DB11D3D
:1010D00023E0B695A795979587952A95D1F7209106
:1010E000BC0024FD03C01092110308954091130326
:1010F000509114036091150370911603452B462BF4
:10110000472B69F30097A105B10541F025E32A9526
:10111000F1F700000197A109B109E1CF8091120315
:101120000C94E501FB0101900020E9F73197AF0134
:10113000461B570BDC01ED91FC910280F381E02D01
:101140000994CF93DF93BC0187E493E00E94920857
:10115000EC016AE971E087E493E00E9492088C0F49
:101160009D1FDF91CF9108954F925F926F927F9272
:10117000AF92BF92CF92DF92EF92FF920F931F93A5
:10118000CF93DF93CDB7DEB7A1970FB6F894DEBF4C
:101190000FBECDBF5C016A017B01F7FE42C06DE26C
:1011A0000E94F0038C0122273327A9012C193D0945
:1011B0004E095F0919A2CE0181967C019AE0492E61
:1011C000512C612C712CCA01B901A30192010E941A
:1011D0009A14605DF70162937F0121153105410585
:1011E000510589F790E080E0309721F0BF01C501FB
:1011F0000E949208800F911FA1960FB6F894DEBF4F
:101200000FBECDBFDF91CF911F910F91FF90EF9057
:10121000DF90CF90BF90AF907F906F905F904F9096
:101220000895AB01960119A28E010F5D1F4F8AE050
:10123000C82ED12CE12CF12CCA01B901A7019601CD
:101240000E949A14605DF80162938F0121153105A7
:101250004105510589F790E080E0309769F2BF01C0
:10126000C5010E949208C8CF0C949208CF93DF93D7
:101270001092EA021092E9021092180310923A03B7
:101280000E94C70183E990E09093E8028093E7020F
:1012900084E990E09093E6028093E5021092F004D6
:1012A0008091F604823018F098E09093F0048093D7
:1012B000F30462E370E080E090E00E94B10360918B
:1012C000F7048BEE94E00E94C70768EE73E080E0BD
:1012D00090E00E94B10360E38BEE94E00E94DD0792
:1012E000CBE4D6E4CE010197F1F760E38BEE94E016
:1012F0000E94DD072197F1F760E38BEE94E00E94F6
:10130000DD0783E592E00197F1F760E28BEE94E070
:101310000E94DD076091F004606240E08BEE94E093
:101320000E94F60784E08093F10440E06CE08BEECD
:1013300094E00E94F6070E94410882E08093F20444
:1013400040E066E08BEE94E00E94F60740E062E049
:101350008BEE94E00E94F6078BE39FE10197F1F793
:1013600088E08093F70460E08BEE94E00E94C7076A
:1013700060E080E00E940D086DE971E08BEE94E082
:101380000E94340961E080E00E940D086BEA71E080
:101390008BEE94E00E94340962E080E00E940D0828
:1013A00067EB71E08BEE94E00E94340963E080E02B
:1013B0000E940D0868EC71E08BEE94E0DF91CF9114
:1013C0000C9434090C9464160E94AA178F929F9271
:1013D000AF92BF92CF92DF92EF92FF92CF93DF93C3
:1013E000FC012789308D232BB9F1EC010E94E40325
:1013F0004B015C0189E0C82ED12CE12CF12CE88155
:10140000F981008CF18DE02DCE010995882321F121
:101410000E94E403AB01BC01481959096A097B0920
:101420008F89988DB0E0A0E084179507A607B707CD
:10143000F8F00E94D512A70196010E9431149B0179
:10144000AC012F5F3F4F4F4F5F4FA4E6B0E00E94CB
:1014500050140E94B103D3CF81E0DF91CF91FF9070
:10146000EF90DF90CF90BF90AF909F908F900895B6
:1014700080E0F3CFDF92EF92FF920F931F93CF9311
:10148000DF93EC017B018A01E881F9810680F78115
:10149000E02D0995D82E8823D1F0E114F104B1F0A4
:1014A0000115110599F0FE01E359FF4F8081875026
:1014B000F8019081891708F48083F801408150E099
:1014C000BE01625D7F4FC7010E94AF1719A28D2D2B
:1014D000DF91CF911F910F91FF90EF90DF900895D2
:1014E0004F925F926F927F92AF92BF92CF92DF92B4
:1014F000EF92FF921F93CF93DF9300D0CDB7DEB76B
:101500007C01909377028093760261E0FC01848DE8
:101510000E94060260E0F701838D0E94060261E0EE
:10152000F701858D0E940602C7010E94AF07F701EF
:10153000C18CD28CC114D10409F444C0F12CE12C2B
:1015400083E0CC0CDD1CEE1CFF1C8A95D1F79AE6DB
:10155000A92E90E0B92E11E0412C24E2522E24EF66
:10156000622E712C42E050E0B501CE0101960E943E
:101570002D1329813A8150E040E0C301B2010E945D
:101580009A14CA01B901A70196010E949A14DA01BE
:10159000C9010297A109B1098D3F9F4FA105B1056E
:1015A00010F11F5F62E0A60EB11C1730D9F6223091
:1015B00031054105510530F02115310581E048071D
:1015C000510598F081E00F900F90DF91CF911F911E
:1015D000FF90EF90DF90CF90BF90AF907F906F9093
:1015E0005F904F900895163069F31092800088E064
:1015F0008093810080918100182B1093810030939B
:1016000089002093880080916F00826080936F0032
:10161000D9CF1F920F920FB60F9211242F933F93A1
:101620004F935F936F937F938F939F93AF93BF93EA
:10163000EF93FF938091B900887F803609F44AC008
:10164000F0F5883209F4A7C018F5803109F49BC081
:10165000B8F4882309F4F9C0883009F494C0FF91E4
:10166000EF91BF91AF919F918F917F916F915F911A
:101670004F913F912F910F900FBE0F901F90189593
:10168000883109F488C0803251F780930F0314C069
:10169000803409F49DC040F48033B9F38833F9F6FF
:1016A00080930F0385ECB0C0803509F485C0883580
:1016B00009F496C0883499F60E945A08D0CF883928
:1016C00009F48CC038F5883729F050F4883611F0C9
:1016D000803729F683E0809311031092E40257C00B
:1016E000883809F47BC0803919F0803809F0B7CF09
:1016F0008091E402803208F071C0E091E40281E060
:101700008E0F8093E4028091BB00F0E0EC53FD4F1C
:1017100080833DC0803B39F0E0F4803A09F479C021
:10172000883A09F09CCF84E0809311031092C302A1
:101730001092C202E091E702F091E80209958091CF
:10174000C20281110FC081E08093C2021092A202F6
:1017500009C0803C09F4A6CF883C09F4A3CF883B9C
:1017600009F07DCFE091C30281E08E0F8093C30228
:10177000F0E0EE55FD4F80818093BB009091C30255
:101780008091C20229C08091EC028093BB0085EC5D
:101790008093BC0064CF90910E0380910D03981745
:1017A00058F5E0910E0381E08E0F80930E03F0E078
:1017B000E351FD4F8081E9CFE0910E0381E08E0F70
:1017C00080930E038091BB00F0E0E351FD4F8083D6
:1017D00090910E0380910D039817C8F285E8D8CF39
:1017E000E0910E0381E08E0F80930E038091BB0089
:1017F000F0E0E351FD4F80838091100381115CCFB5
:1018000081E08093EB0284EA8093BC001092110384
:1018100026CF85EC8093BC00109211038091E402E6
:10182000803230F4E091E402F0E0EC53FD4F10829E
:101830006091E40270E0E091E502F091E60284EC50
:1018400092E009951092E4020ACF10920F0334CF70
:101850001F920F920FB60F9211242F933F938F93E5
:101860009F93AF93BF938091790290917A02A09158
:101870007B02B0917C023091780223E0230F2D3758
:1018800058F50196A11DB11D20937802809379022D
:1018900090937A02A0937B02B0937C0280917D02A8
:1018A00090917E02A0917F02B09180020196A11DCD
:1018B000B11D80937D0290937E02A0937F02B0932E
:1018C0008002BF91AF919F918F913F912F910F9087
:1018D0000FBE0F901F90189526E8230F0296A11DAA
:1018E000B11DD2CF1F920F920FB60F9211242F93DA
:1018F0003F934F935F936F937F938F939F93AF9398
:10190000BF93EF93FF9387E493E00E947504FF91E8
:10191000EF91BF91AF919F918F917F916F915F9167
:101920004F913F912F910F900FBE0F901F901895E0
:101930001F920F920FB60F9211242F938F939F93A4
:10194000EF93FF93E0915703F09158038081E0916A
:101950005D03F0915E0382FD1BC090818091600366
:101960008F5F8F7320916103821741F0E0916003D4
:10197000F0E0E95BFC4F958F80936003FF91EF915E
:101980009F918F912F910F900FBE0F901F901895E0
:101990008081F4CF1F920F920FB60F921124CF9235
:1019A000DF92EF92FF920F931F932F933F934F93EA
:1019B0005F936F937F938F939F93AF93BF93CF93D7
:1019C000DF93EF93FF93C0917602D09177028A81E3
:1019D0009B81049709F0C7C08B8D0E94700121E0A4
:1019E000892B09F420E08E8D922F9827281719F063
:1019F0008BA18F5F8BA38AA18917F1F18CA12DE1B7
:101A0000803508F42BE08CA1820F8CA39AA38CA1C3
:101A1000803A08F46DC08EA19FA1969587959FA3EB
:101A20008EA38BA1853028F08EA19FA198609FA3E3
:101A30008EA38CA1805A8CA31BA28DA1882309F4AC
:101A400086C088A58F5F88A78C3008F451C08EA10E
:101A50009FA1982F9F73892F86958695887028E07F
:101A6000280F821769F0E82FF0E0E65EFE4F308124
:101A7000931739F08F5FF5CF8CA18C5E8CA3C7CF05
:101A800080E090E1899F900111248EA19FA136E012
:101A9000969587953A95E1F7482F95958795959571
:101AA0008795887098E0980F981749F0E82FF0E034
:101AB000E65EFE4F5081451719F08F5FF5CF80E04D
:101AC000822BDE01A359BF4F9C91AE0144595F4F59
:101AD000911127C0FA0180839081973018F090818E
:101AE0009434F8F01DA2888999890196998B888B86
:101AF000FF91EF91DF91CF91BF91AF919F918F9126
:101B00007F916F915F914F913F912F911F910F9115
:101B1000FF90EF90DF90CF900F900FBE0F901F902F
:101B200018952C9191E0920F9C932C0F3D2F311D15
:101B3000F90181A79C91DA018C91981730F01DA2D0
:101B400081E088A3CE010E94AF0718A6D1CF8EA155
:101B50009FA188339B4061F681E08DA318A6C359ED
:101B6000DF4F1882C5CF8A819B81039709F68E01CA
:101B700000591F4FF801808191E0980F90838111E7
:101B800013C06E01FEE6CF0ED11CD601EC91AF560C
:101B9000BF4F8C91E81778F0CE010E94AF078C8977
:101BA0009D8901969D8B8C8BD8018C91883008F48F
:101BB0009FCF1C929DCFEC0FFD2FF11DEF58FF4FD3
:101BC000608170E07E01BFE6EB0EF11CF7018081C1
:101BD00091E0980F908302C0759567958A95E2F71A
:101BE00061708C8D0E949901D7018C918630E0F252
:101BF0001C92F60180818F5F8083D6CFCF93DF93D5
:101C0000CDB7DEB728970FB6F894DEBF0FBECDBFB5
:101C1000EBE3F3E01382128288EE93E0A0E0B0E001
:101C200084839583A683B7832EE231E031832083BA
:101C3000E7E4F3E01382128284839583A683B7835B
:101C400080E491E09183808385EC90E095878487A0
:101C500084EC90E09787868780EC90E0918B808B76
:101C600081EC90E0938B828B82EC90E0958B848B5F
:101C700086EC90E0978B868B118E128E138E148ECD
:101C8000EBEEF4E01382128282E991E0918380838B
:101C9000118687E2848384E1828784E083871486C7
:101CA0001092EA041092E9048FE08093E804E4EED5
:101CB000F3E0138212828FEF8483828783871486F6
:101CC0001586118A108A138A128A158A148A108E30
:101CD000178A82E591E09183808380ED97E0928F6F
:101CE000818F8BE0838F8CE0848F8AE0858F168EC6
:101CF000178E88E0E2E1F1E0DE01119601900D928D
:101D00008A95E1F788E0FE013196A5E5B4E00190FF
:101D10000D928A95E1F728960FB6F894DEBF0FBEB4
:101D2000CDBFDF91CF910895CF93DF93CDB7DEB7CD
:101D3000E4970FB6F894DEBF0FBECDBF789484B59C
:101D4000826084BD84B5816084BD85B5826085BDB7
:101D500085B5816085BD80916E00816080936E0045
:101D60001092810080918100826080938100809137
:101D700081008160809381008091800081608093E8
:101D800080008091B10084608093B1008091B000A8
:101D900081608093B00080917A00846080937A00A3
:101DA00080917A00826080937A0080917A008160CD
:101DB00080937A0080917A00806880937A001092F4
:101DC000C100E0915703F091580382E08083E091D5
:101DD0005303F09154031082E0915503F0915603A0
:101DE00080E1808310925F03E0915B03F0915C03DC
:101DF00016E01083E0915903F0915A0380818061CD
:101E00008083E0915903F0915A0380818860808338
:101E1000E0915903F0915A03808180688083E091BA
:101E20005903F0915A0380818F7D80838EE00E9458
:101E300042021CA38E010F5F1F4F7E012FE1E20EB5
:101E4000F11CD80111961C921E9213961C921E92A0
:101E5000129715961C921E92149761E070E090E024
:101E600080E00E94ED16009709F4F3C2F801918317
:101E700080831382128224813581232B11F4DC01AB
:101E80001C92D80115961C921E9214976CE971E071
:101E90008D919C910E94B817EAC256E065167104B4
:101EA00009F4AFC108F432C197E06916710409F072
:101EB00021C30E94410860E080E00E940D0862E4B6
:101EC00072E08BEE94E00E94340961E080E00E94B1
:101ED0000D0860E572E08BEE94E00E943409240165
:101EE00035018FA198A5A9A5BAA5481A590A6A0A69
:101EF0007B0A101611060CF084C202531109AE01C0
:101F00004C5D5F4FBE01615E7F4F84EE93E00E94A7
:101F10003A0A882381F0B301A20187E493E00E948A
:101F2000B40860E472E087E493E00E943409CE01D3
:101F30004F960E94A108C8010E94810368EC70E0DE
:101F400080E090E00E94B103D4CF81EE91E00E9446
:101F5000A10862E086E00E94060262E087E00E943B
:101F6000060262E088E00E94060262E082E00E94CF
:101F7000060281E0809317038DE08093390310926D
:101F8000180310923A0383E890E00E9442010E94F5
:101F90009A020E94360942E0242E312CABC20E94E4
:101FA000570298AB8FA7BC01990F880B990B0E9421
:101FB000381328EE34EB41E85CE30E9473132BEAFC
:101FC0003AEA4EE051E40E94D8140E947B150E9428
:101FD00045152B013C01A1E14A165104610471042D
:101FE0002CF060E1462E512C612C712C60E08CE0CD
:101FF0000E940D08B301A2014C3051056105710525
:1020000024F44CE050E060E070E08BEE94E00E943D
:10201000B40860E08FE00E940D0860E28BEE94E06F
:102020000E94F00360E08EE00E940D0860E28BEEFB
:1020300094E00E94F00386E00E947001892B09F071
:1020400059C286E00E947001892BD9F334E0232E17
:10205000312C50C20E94570228E730E0DC010E9478
:10206000CB1420E83CE040E050E00E9431146901CC
:102070007A0161E08AE00E940D08B701A6018BEEAB
:1020800094E00E94B408B4E6CB16D104E104F10454
:10209000C4F461E08CE00E940D0860E28BEE94E0F5
:1020A0000E94F003EAE0CE16D104E104F1044CF4FE
:1020B00061E08BE00E940D0860E28BEE94E00E94EC
:1020C000F00386E00E947001892B91F086E00E9467
:1020D0007001019709F00EC287E00E947001892B00
:1020E00009F008C287E00E947001892BD9F353CF11
:1020F00087E00E947001019749F786E00E94700115
:10210000892BD9F355E0252E312CF4C162E088E00B
:102110000E940D0887E00E947001892BB1F46FE0E6
:1021200072E08BEE94E00E94340962E088E00E9445
:102130000D086FEB71E08BEE94E00E94340987E0AC
:102140000E947001892BD9F381CF88E00E94700131
:102150000197D1F46FE072E08BEE94E00E943409B5
:1021600062E088E00E940D086FEB71E08BEE94E076
:102170000E94340961E083E00E94990160E084E0FC
:102180000E9499011301B6C188E00E947001892B59
:1021900009F0B0C16FE072E08BEE94E00E94340968
:1021A00062E088E00E940D0862EC71E08BEE94E042
:1021B0000E94340960E083E00E94990161E084E0BC
:1021C0000E94990186E00E947001892B09F092C15A
:1021D00060E172E08BEE94E00E94340962E088E0F6
:1021E0000E940D0886E00E947001892BD9F368E1F6
:1021F00072E08BEE94E00E94340926E0222E312C0E
:1022000079C10E94E4036FA378A789A79AA70E94C7
:10221000E4034B015C01A8EEB3E0A70196010E9424
:1022200050142B013C017C016B0163E080E00E94B3
:102230000D0861E272E08BEE94E00E943409A30184
:10224000920129513C4F4F4F5F4F29AB3AAB4BABFB
:102250005CAB36E02316310409F04CC182E00E94E9
:102260007001892B09F4A0C067E372E0CE014F969C
:102270000E94BF17892B09F097C0AE014C5D5F4FDC
:10228000BE01615E7F4F84EE93E00E943A0A2FA167
:1022900038A549A55AA5821A930AA40AB50A882323
:1022A00081F0B501A40187E493E00E94B40860E4E2
:1022B00072E087E493E00E943409CE014F960E94B9
:1022C000A10829A93AA94BA95CA9281539054A05ED
:1022D0005B058CF14FA558A9C801041715070CF030
:1022E0008DC00E9481030E5F1F4F0E94E4034B01CB
:1022F0005C0163E08BE00E940D088FA198A5A9A561
:10230000BAA5881A990AAA0ABB0AC301B2016819B8
:1023100079098A099B0928EE33E040E050E00E94E9
:1023200031142BA73CA74DA75EA7BA01A9018BEEDC
:1023300094E00E94B4082BA53CA54DA55EA52436CB
:102340003105410551055CF563E08DE00E940D0803
:1023500060E28BEE94E00E94F0038BA59CA5ADA5F6
:10236000BEA50A97A105B10574F460E28BEE94E076
:102370000E94F00363E08CE00E940D0860E28BEEA7
:1023800094E00E94F0032BA53CA54DA55EA5121676
:102390001306140615061CF097E0292E312C0E9416
:1023A000E4034B015C0155CF0E94410860E080E0EE
:1023B0000E940D086DE272E08BEE94E00E943409F9
:1023C00090E080E00E94810360ED77E080E090E0A3
:1023D0000E94B10381E090E09093EA048093E904C5
:1023E0008CE392E00E94A10886E0ADA1BEA11D92FF
:1023F0008A95E9F722242394312C7CC00E94810322
:1024000074CF62E080E00E940D086DE572E08BEE13
:1024100094E00E9434098CE392E00E94A10868E8ED
:1024200073E180E090E00E94B10363E080E00E94ED
:102430000D0861E772E08BEE94E00E94340968EBCE
:102440007BE080E090E00E94B1030E9436091F8E7D
:10245000D1CFD8018D919C91009711F00E94641604
:10246000F8011182108215821482138212820A5F8F
:102470001F4FE016F10609F0E4CC8FE08093E804EA
:1024800081E090E09093EA048093E90484EE93E085
:102490000E94700A811104C085ED91E00E94A1089C
:1024A00018AA1FA610E000E022242394312C812CCE
:1024B000912C5401C12CD12C76011FA218A619A66B
:1024C0001AA6FE017F96FEA3EDA36090E90470902A
:1024D000EA04F4E06F16710409F4BCCD08F0DDCC19
:1024E00031E06316710409F430CD42E064167104E2
:1024F00009F455CD98E02916310424F43092EA0409
:102500002092E90469E170E080E090E00E94B1036C
:10251000DCCF8F929F92AF92BF92CF92DF92EF92D9
:10252000FF92CF93DF93EC01688179818A819B814F
:10253000611571058105910521F464E279ED8BE562
:1025400097E02DE133EF41E050E00E943114490162
:102550005A019B01AC01A7EAB1E40E9450146B013F
:102560007C01ACEEB4EFA50194010E945E14C60E8E
:10257000D71EE81EF91EF7FE06C081E0C81AD10872
:10258000E10880E8F80AC882D982EA82FB82C701A2
:10259000B6019F77DF91CF91FF90EF90DF90CF90C2
:1025A000BF90AF909F908F9008958F929F92AF921F
:1025B000BF92CF92DF92EF92FF92609100017091F3
:1025C000010180910201909103016115710581055E
:1025D000910521F464E279ED8BE597E02DE133EF8D
:1025E00041E050E00E94311449015A019B01AC01C5
:1025F000A7EAB1E40E9450146B017C01ACEEB4EF89
:10260000A50194010E945E14C60ED71EE81EF91E95
:10261000F7FE06C081E0C81AD108E10880E8F80A90
:10262000C0920001D0920101E0920201F0920301F8
:10263000C701B6019F77FF90EF90DF90CF90BF90DA
:10264000AF909F908F900895609300017093010167
:1026500080930201909303010895FB01DC0102C005
:1026600005900D9241505040D8F70895E89409C064
:1026700097FB3EF490958095709561957F4F8F4FB5
:102680009F4F9923A9F0F92F96E9BB279395F695CB
:10269000879577956795B795F111F8CFFAF4BB0F49
:1026A00011F460FF1BC06F5F7F4F8F4F9F4F16C0AD
:1026B000882311F096E911C0772321F09EE8872F37
:1026C000762F05C0662371F096E8862F70E060E0F3
:1026D0002AF09A95660F771F881FDAF7880F96956C
:1026E000879597F908950E9486130C94F7130E941A
:1026F000E91338F00E94F01320F0952311F00C94A8
:10270000E0130C94E61311240C942B140E9408146B
:1027100070F3959FC1F3950F50E0551F629FF00134
:10272000729FBB27F00DB11D639FAA27F00DB11D4D
:10273000AA1F649F6627B00DA11D661F829F2227D6
:10274000B00DA11D621F739FB00DA11D621F839F5D
:10275000A00D611D221F749F3327A00D611D231F33
:10276000849F600D211D822F762F6A2F11249F5781
:1027700050409AF0F1F088234AF0EE0FFF1FBB1F84
:10278000661F771F881F91505040A9F79E3F510543
:1027900080F00C94E0130C942B145F3FE4F3983E0C
:1027A000D4F3869577956795B795F795E7959F5FED
:1027B000C1F7FE2B880F911D9695879597F908957F
:1027C00097F99F6780E870E060E008959FEF80ECE4
:1027D000089500240A941616170618060906089587
:1027E00000240A9412161306140605060895092EED
:1027F0000394000C11F4882352F0BB0F40F4BF2B5C
:1028000011F460FF04C06F5F7F4F8F4F9F4F08959B
:1028100057FD9058440F551F59F05F3F71F0479591
:10282000880F97FB991F61F09F3F79F08795089576
:10283000121613061406551FF2CF4695F1DF08C095
:10284000161617061806991FF1CF869571056105B2
:1028500008940895E894BB2766277727CB0197F95A
:102860000895052E97FB1EF400940E94481457FD0E
:1028700007D00E949A1407FC03D04EF40C9448141D
:1028800050954095309521953F4F4F4F5F4F08959C
:1028900090958095709561957F4F8F4F9F4F0895CC
:1028A0000E94BC14A59F900DB49F900DA49F800D15
:1028B000911D11240895B7FF0C9450140E945014D8
:1028C000821B930B08952F923F924F925F926F92CB
:1028D0007F928F929F92AF92BF92CF92DF92EF92B0
:1028E000FF920F931F93CF93DF93CDB7DEB7CA1B31
:1028F000DB0B0FB6F894DEBF0FBECDBF09942A885C
:10290000398848885F846E847D848C849B84AA8403
:10291000B984C884DF80EE80FD800C811B81AA8190
:10292000B981CE0FD11D0FB6F894DEBF0FBECDBF5B
:10293000ED010895A1E21A2EAA1BBB1BFD010DC0DB
:10294000AA1FBB1FEE1FFF1FA217B307E407F5075F
:1029500020F0A21BB30BE40BF50B661F771F881F3B
:10296000991F1A9469F760957095809590959B01D1
:10297000AC01BD01CF010895A29FB001B39FC0017A
:10298000A39F700D811D1124911DB29F700D811D9B
:102990001124911D08950E94BC14B7FF0895821B55
:1029A000930B0895EE0FFF1F0590F491E02D09940D
:1029B0005058BB27AA270E94F0140C94F7130E94CA
:1029C000E91338F00E94F01320F039F49F3F19F416
:1029D00026F40C94E6130EF4E095E7FB0C94E01358
:1029E000E92F0E94081458F3BA1762077307840787
:1029F000950720F079F4A6F50C942A140EF4E095CE
:102A00000B2EBA2FA02D0B01B90190010C01CA01A8
:102A1000A0011124FF27591B99F0593F50F4503E53
:102A200068F11A16F040A22F232F342F4427585F45
:102A3000F3CF469537952795A795F0405395C9F75D
:102A40007EF41F16BA0B620B730B840BBAF0915015
:102A5000A1F0FF0FBB1F661F771F881FC2F70EC0B4
:102A6000BA0F621F731F841F48F487957795679587
:102A7000B795F7959E3F08F0B0CF9395880F08F073
:102A80009927EE0F9795879508950E944C156894A5
:102A9000B1110C942B1408950E94101488F09F57C4
:102AA00098F0B92F9927B751B0F0E1F0660F771F72
:102AB000881F991F1AF0BA95C9F714C0B13091F068
:102AC0000E942A14B1E008950C942A14672F782FDD
:102AD0008827B85F39F0B93FCCF38695779567952D
:102AE000B395D9F73EF490958095709561957F4F99
:102AF0008F4F9F4F08950E941014E8F09E37E8F022
:102B00009639B8F49E3848F4672F782F8827985F55
:102B1000F9CF86957795679593959539D0F3B62F2C
:102B2000B1706B0F711D811D20F4879577956795A6
:102B300093950C949F150C94BA150C942B14882320
:102B400071F4772321F09850872B762F07C06623E6
:102B500011F499270DC09051862B70E060E02AF0A7
:102B60009A95660F771F881FDAF7880F96958795D5
:102B700097F908959F3F31F0915020F4879577950C
:102B80006795B795880F911D9695879597F9089544
:102B90000F931F93CF93DF938230910510F482E05F
:102BA00090E0E091FA04F091FB0430E020E0B0E026
:102BB000A0E0309799F42115310509F44AC0281B8B
:102BC000390B24303105D8F58A819B816115710557
:102BD00089F1FB0193838283FE0111C04081518101
:102BE0000281138148175907E0F04817590799F4F3
:102BF000109761F012960C93129713961C933296CD
:102C0000CF01DF91CF911F910F9108950093FA04A6
:102C10001093FB04F4CF2115310551F042175307EF
:102C200038F0A901DB019A01BD01DF01F801C1CF34
:102C3000EF01F9CF9093FB048093FA04CDCFFE010E
:102C4000E20FF31F81939193225031093983288336
:102C5000D7CF2091F8043091F904232B41F420912F
:102C60000601309107013093F9042093F804209174
:102C70000401309105012115310541F42DB73EB70E
:102C80004091080150910901241B350BE091F80493
:102C9000F091F904E217F307A0F42E1B3F0B28175D
:102CA000390778F0AC014E5F5F4F2417350748F0C5
:102CB0004E0F5F1F5093F9044093F8048193919352
:102CC0009FCFF0E0E0E09CCFCF93DF930097E9F057
:102CD000FC01329713821282A091FA04B091FB0496
:102CE000ED0130E020E01097A1F420813181820FC6
:102CF000931F2091F8043091F9042817390709F03F
:102D000061C0F093F904E093F804DF91CF91089546
:102D1000EA01CE17DF07E8F54A815B819E01411584
:102D20005105B1F7E901FB83EA8349915991C40F39
:102D3000D51FEC17FD0761F4808191810296840F05
:102D4000951FE90199838883828193819B838A837C
:102D5000F0E0E0E012968D919C9113970097B9F501
:102D60002D913C911197CD010296820F931F2091D6
:102D7000F8043091F9042817390739F6309751F5DE
:102D80001092FB041092FA04B093F904A093F80493
:102D9000BCCFD383C28340815181840F951FC81754
:102DA000D90761F44E5F5F4F88819981480F591FA1
:102DB000518340838A819B819383828321153105CE
:102DC00009F0B0CFF093FB04E093FA049ECFFD012D
:102DD000DC01C0CF13821282D7CFB0E0A0E0E3EFD6
:102DE000F6E10C9465148C01009751F4CB010E941C
:102DF000C8158C01C801CDB7DEB7E0E10C94811491
:102E0000FC01E60FF71F9C0122503109E217F3077E
:102E100008F49DC0D901CD91DC911197C617D70751
:102E200098F0C530D10530F3CE0104978617970787
:102E300008F3C61BD70B2297C193D1936D937C9354
:102E4000CF010E946416D6CF5B01AC1ABD0A4C01BB
:102E50008C0E9D1EA091FA04B091FB04512C412CC4
:102E6000F12CE12C109731F58091F8049091F90440
:102E70008815990509F05CC04616570608F058C039
:102E80008091040190910501009741F48DB79EB7A0
:102E90004091080150910901841B950BE817F9072F
:102EA00008F055C0F093F904E093F804F901718338
:102EB0006083A0CF8D919C91119712966C90129780
:102EC00013967C901397A815B90559F56C0142E04B
:102ED000C40ED11CCA14DB0420F1AC014A195B09F1
:102EE000DA011296159780F06282738251834083D3
:102EF000D9016D937C93E114F10471F0D70113961D
:102F0000FC93EE93129776CF22968C0F9D1FF901BA
:102F100091838083F301EFCFF093FB04E093FA04F5
:102F200069CF4816590608F42C017D01D3019ACFC8
:102F3000CB010E94C8157C01009749F0AE01B80191
:102F40000E94AF17C8010E946416870153CF10E09A
:102F500000E050CF81E090E0F8940C94D917FB0189
:102F6000DC0102C001900D9241505040D8F7089505
:102F7000FB01DC0101900D920020E1F70895FB01B7
:102F800051915523A9F0BF01DC014D914517411125
:102F9000E1F759F4CD010190002049F04D91401521
:102FA0004111C9F3FB014111EFCF81E090E001979E
:062FB0000895F894FFCF24
:102FB600010000000000FC04800000004000140036
:102FC60054002A2A2A2A2A2A382C0D0E13151619D5
:102FD6001A1C232526292A2C32340000000013014E
:102FE600E600DA07BC00DF00CC00BD0000000000F0
:102FF6009704F7032404E40455043304470400004B
:1030060000000506E209700A4F073A0A0806060696
:10301600C1056F0540057705E60910053A05370530
:10302600340531052A053D052705240521051E051C
:103036001A051605120510050C05080504050000FD
:1030460000005408F703DA07D9070D0A0053706524
:1030560065642852504D293A2030004475726174D7
:10306600696F6E3A2030005374617475733A204468
:10307600495341524D45440054696D65206C65665F
:10308600743A203000696E6974206661696C656403
:10309600004E41534120566573746962756C6172C6
:1030A600204368616972202D2D204C6F6164696E22
:1030B6006720696E746572666163652E2E2E002028
:1030C600202020202020200041524D45445F4F50B3
:1030D6000054696D65206C6566743A2000454D455F
:1030E6005247454E43592053544F5000454F4600D2
:1030F6002C005465737420436F6D706C65746500A5
:10310600536C6F77696E6720646F776E00536176D4
:10311600696E67206461746120746F2066696C65EE
:0631260000446F6E65001D
:00000001FF
