:100000000C9469000C9491000C9491000C94910054
:100010000C9491000C9491000C9491000C9491001C
:100020000C9491000C9491000C9491000C9469072D
:100030000C9491000C9491000C9491000C949100FC
:100040000C94C7060C9491000C9437070C9411077C
:100050000C9491000C9491000C9491000C949100DC
:100060000C9491000C9491000000010008004000E5
:1000700000010004050D00000000240027002A00F4
:1000800000000000250028002B00000000002300D5
:1000900026002900040404040404040402020202E9
:1000A000020203030303030301020408102040803B
:1000B00001020408102001020408102000000008BA
:1000C000000201000003040700000000000000001F
:1000D0009D0811241FBECFEFD8E0DEBFCDBF12E0D8
:1000E000A0E0B1E0E6E9F8E102C005900D92A4308D
:1000F000B107D9F723E0A4E0B2E001C01D92A03B14
:10010000B207E1F710E0C9E6D0E004C02197FE0194
:100110000E94100BC836D107C9F70E9410090C9431
:10012000490C0C940000833081F028F4813099F060
:100130008230A9F008958730A9F08830C9F0843062
:10014000B1F4809180008F7D03C0809180008F7713
:1001500080938000089584B58F7784BD089584B519
:100160008F7DFBCF8091B0008F778093B000089592
:100170008091B0008F7DF9CFCF93DF93282F30E0AF
:10018000F901E454FF4F8491F901E855FF4FD491F0
:10019000F901EC56FF4FC491CC23A1F081110E94CC
:1001A0009300EC2FF0E0EE0FFF1FE657FF4FA591F5
:1001B000B491EC91ED2381E090E009F480E0DF91CF
:1001C000CF91089580E090E0FACF1F93CF93DF9313
:1001D000282F30E0F901E454FF4F8491F901E855EC
:1001E000FF4FD491F901EC56FF4FC491CC23A9F0F5
:1001F000162F81110E949300EC2FF0E0EE0FFF1FED
:10020000E058FF4FA591B4918FB7F894EC9111117C
:1002100008C0D095DE23DC938FBFDF91CF911F9173
:100220000895DE2BF8CFCF93DF9390E0FC01E855E3
:10023000FF4F24918C569F4FFC0184918823C9F075
:1002400090E0880F991FFC01EA58FF4FA591B491E7
:10025000FC01E058FF4FC591D49161110DC09FB7CB
:10026000F8948C91209582238C938881282328836D
:100270009FBFDF91CF910895623051F49FB7F894FA
:100280003C91822F809583238C93E8812E2BEFCF96
:100290008FB7F894EC912E2B2C938FBFEACF3FB7FA
:1002A000F89480910B0290910C02A0910D02B091F4
:1002B0000E0226B5A89B05C02F3F19F00196A11D7F
:1002C000B11D3FBFBA2FA92F982F8827BC01CD01A0
:1002D000620F711D811D911D42E0660F771F881FFF
:1002E000991F4A95D1F708958F929F92AF92BF922E
:1002F000CF92DF92EF92FF926B017C010E944F013F
:100300004B015C01C114D104E104F104B9F00E9475
:100310004F01681979098A099B09683E7340810574
:10032000910580F321E0C21AD108E108F10888EEB6
:10033000880E83E0981EA11CB11CE4CFFF90EF90C3
:10034000DF90CF90BF90AF909F908F9008952FB780
:10035000F8946091070270910802809109029091CF
:100360000A022FBF0895AF92BF92CF92DF92EF9211
:10037000FF920F931F93CF93DF936C017B018B014F
:10038000040F151FEB015E01AE18BF08C017D1079F
:1003900059F06991D601ED91FC910190F081E02D29
:1003A000C6010995892B79F7C501DF91CF911F917E
:1003B0000F91FF90EF90DF90CF90BF90AF90089596
:1003C000FC01538D448D252F30E0842F90E0821B5B
:1003D000930B541710F0CF96089501970895FC01E0
:1003E000918D828D981761F0A28DAE0FBF2FB11D38
:1003F0005D968C91928D9F5F9F73928F90E0089590
:100400008FEF9FEF0895FC01918D828D981731F049
:10041000828DE80FF11D858D90E008958FEF9FEF9D
:100420000895FC01918D228D892F90E0805C9F4F73
:10043000821B91098F73992708958FE092E00E94A3
:10044000110221E0892B09F420E0822F089580E039
:1004500090E0892B29F00E941D0281110C9400006C
:100460000895FC01A48DA80FB92FB11DA35ABF4F49
:100470002C91848D90E001968F739927848FA689A3
:10048000B7892C93A089B1898C91837080648C93F7
:10049000938D848D981306C00288F389E02D8081A6
:1004A0008F7D80830895EF92FF920F931F93CF93D8
:1004B000DF93EC0181E0888F9B8D8C8D98131AC09F
:1004C000E889F989808185FF15C09FB7F894EE8986
:1004D000FF896083E889F9898081837080648083E3
:1004E0009FBF81E090E0DF91CF911F910F91FF902E
:1004F000EF900895F62E0B8D10E00F5F1F4F0F73D6
:100500001127E02E8C8D8E110CC00FB607FCFACF90
:10051000E889F989808185FFF5CFCE010E943102FB
:10052000F1CFEB8DEC0FFD2FF11DE35AFF4FF08261
:100530009FB7F8940B8FEA89FB8980818062CFCFC7
:10054000CF93DF93EC01888D8823B9F0AA89BB890A
:10055000E889F9898C9185FD03C0808186FD0DC0F5
:100560000FB607FCF7CF8C9185FFF2CF808185FF16
:10057000EDCFCE010E943102E9CFDF91CF910895F6
:10058000862720E1829FB00111248627482F50E062
:10059000292F382FCA0164E0959587956A95E1F770
:1005A00028273927CA0173E0880F991F7A95E1F748
:1005B00082279327089508958CE308956F927F9280
:1005C0008F929F92AF92BF92CF92DF92EF92FF9263
:1005D0000F931F93CF93DF934D3388F0712C872DAA
:1005E000DF91CF911F910F91FF90EF90DF90CF900F
:1005F000BF90AF909F908F907F906F900895042F41
:100600005B01EC01E881F9810088F189E02D099511
:10061000E881F9810688F789E02DCE010995782EC9
:100620008823E1F27E0129E7E20EF11C17E0100FAA
:10063000612F8FEF9FEF0E94C002E12FF0E064E096
:10064000F595E7956A95E1F7EE5EFE4F2081F7019B
:1006500020831F70E12FF0E0EE5EFE4F2081FE014F
:10066000E658FF4F20831A85612F0E94C002E12FB8
:10067000F0E074E0F595E7957A95E1F7EE5EFE4FD0
:100680002081FE01E558FF4F20831F70E12FF0E02D
:10069000EE5EFE4F2081FE01E458FF4F20831B8554
:1006A000612F0E94C002E12FF0E0A4E0F595E795EC
:1006B000AA95E1F7EE5EFE4F2081FE01E358FF4F61
:1006C00020831F70E12FF0E0EE5EFE4F2081FE01DF
:1006D000E258FF4F20831C85612F0E94C002E12F4A
:1006E000F0E0B4E0F595E795BA95E1F7EE5EFE4FE0
:1006F0002081FE01E158FF4F20831F70E12FF0E0C1
:10070000EE5EFE4F2081FE01E058FF4F20831D85E5
:10071000612F0E94C002E12FF0E024E0F595E795FB
:100720002A95E1F7EE5EFE4F2081FE01EF57FF4F65
:1007300020831F70E12FF0E0EE5EFE4F2081FE016E
:10074000EE57FF4F20836501470110E0A00EB11E58
:10075000F2E08F0E911CCA14DB04E9F0F6016190FF
:100760006F01662D0E94C002E62DF0E054E0F59581
:10077000E7955A95E1F7EE5EFE4F2081F401208760
:10078000F6013197E081EF70F0E0EE5EFE4F2081E0
:10079000F4012187DDCF98012B5F3F4F220F331FDC
:1007A00080959095D701A20FB31FFC0154E0F695F8
:1007B000E7955A95E1F7EF70FF27EE5EFE4F308127
:1007C0003C93F801EE0FFF1FBF016E0D7F1DAC01C2
:1007D0004F7055274E5E5E4FFA013081FB01338723
:1007E0000A5F1F4F000F111F0E0D1F1DFC01EF2F81
:1007F000FF27E295EF70EE5EFE4F3081F801308307
:10080000E92FFF27EF70FF27EE5EFE4F80811396E2
:100810008C93FE01E150FF4F245F20838A819B81EE
:10082000039709F4DCCEE159F10910823196108268
:10083000319610826F8D81E068278D8D0E94E500D2
:1008400083E090E09B838A83CACEEF92FF921F934E
:10085000CF93DF93FC01228133812330310509F4EA
:1008600052C0EC0182819381049761F0678D858D80
:100870000E94E50060E08C8D0E94E50084E090E03D
:100880009B838A8388A18823E9F010E08FEF9FEF94
:100890007E01FDE6EF0EF11CF7012081121740F4F6
:1008A000FE01E10FF11D61A50E94C0021F5FF4CFA0
:1008B000883B904F71F0888999890196998B888B34
:1008C00019A218A289A1DF91CF911F91FF90EF90FB
:1008D00008958AA58E838BA58F838CA588878DA587
:1008E00089878D81811107C09E818C81981719F0AD
:1008F0008E818F3F31F78A899B8901969B8B8A8BEA
:1009000081E089A3DECF80E0DECFCF93DF93FC01CF
:10091000228133812230310569F0EC01678D858DAC
:100920000E94E50060E08C8D0E94E50082E090E08E
:100930009B838A83DF91CF91089581E00895FC0124
:10094000848995890895FC01828993890895FC0121
:1009500080899189089580E00895FC017383628302
:100960000895FC01828193810895FC018685978515
:100970000895FC0181850895FC0180850895FC019E
:1009800087810895FC01868108954095FC012585A5
:100990004223642B65870895FC0164870895FC0158
:1009A00063870895FC0162870895FC0164830895BC
:1009B000FC01658308958F929F92AF92BF92CF9270
:1009C000DF92EF92FF92CF93DF93EC016B010E94D5
:1009D000A7014B015C01F12CE12C0E94A7016819D1
:1009E00079098A099B096C157D058E059F0580F4A0
:1009F0008A819B81039789F381E0DF91CF91FF90FA
:100A0000EF90DF90CF90BF90AF909F908F90089520
:100A100080E0F3CFFC012281338123303105D1F313
:100A200081E008954F925F926F927F928F929F9292
:100A3000AF92BF92CF92DF92EF92FF920F931F93EC
:100A4000CF93DF93EC016B018A010E94A7012B0178
:100A50003C01F12CE12C4801B12CA12C0E94A701F2
:100A600064197509860997096C157D058E059F0522
:100A700088F4E881F9810680F781E02DCE0109959F
:100A8000811109C00115110549F3C501B4010E9486
:100A90007401E4CF80E0DF91CF911F910F91FF901F
:100AA000EF90DF90CF90BF90AF909F908F907F900E
:100AB0006F905F904F900895CF92DF92EF92FF92E8
:100AC0000F931F93CF93DF93EC018B016B01F12CFC
:100AD000E12CE881F9810680F781E02DCE010995AE
:100AE000811108C001151105A1F3C701B6010E94CB
:100AF0007401EFCFDF91CF911F910F91FF90EF9095
:100B0000DF90CF900895CF93DF93FC0101900020F8
:100B1000E9F73197AF01481B590BBC018FE092E018
:100B20000E94B301EC0142E050E064E771E08FE025
:100B300092E00E94B3018C0F9D1FDF91CF91089529
:100B40000E943B0C0C94B20BDF92EF92FF920F933A
:100B50001F93CF93DF93EC017B018A01E881F98138
:100B60000680F781E02D0995D82E8823D1F0E11475
:100B7000F104B1F00115110599F0FE01E359FF4FA1
:100B800080818750F8019081891708F48083F801EB
:100B9000408150E0BE01625D7F4FC7010E94400C62
:100BA00019A28D2DDF91CF911F910F91FF90EF90A2
:100BB000DF9008954F925F926F927F92AF92BF92B3
:100BC000CF92DF92EF92FF921F93CF93DF9300D0EB
:100BD000CDB7DEB77C01909305028093040261E0FB
:100BE000FC01848D0E94130160E0F701838D0E9457
:100BF000130161E0F701858D0E941301C7010E9476
:100C00008504F701C18CD28CC114D10409F444C00D
:100C1000F12CE12C83E0CC0CDD1CEE1CFF1C8A9532
:100C2000D1F79AE6A92E90E0B92E11E0412C24E2EA
:100C3000522E24EF622E712C42E050E0B501CE011D
:100C400001960E94A40A29813A8150E040E0C30144
:100C5000B2010E94DF0ACA01B901A70196010E94F0
:100C6000DF0ADA01C9010297A109B1098D3F9F4F3F
:100C7000A105B10510F11F5F62E0A60EB11C17308F
:100C8000D9F6223031054105510530F021153105E5
:100C900081E04807510598F081E00F900F90DF91B7
:100CA000CF911F91FF90EF90DF90CF90BF90AF90CA
:100CB0007F906F905F904F900895163069F3109277
:100CC000800088E08093810080918100182B109330
:100CD0008100309389002093880080916F008260AA
:100CE00080936F00D9CF8F929F92AF92BF92CF9295
:100CF000DF92EF92FF92CF93DF93FC012789308D33
:100D0000232BB9F1EC010E94A7014B015C0189E0A2
:100D1000C82ED12CE12CF12CE881F981008CF18DC9
:100D2000E02DCE010995882321F10E94A701AB0196
:100D3000BC01481959096A097B098F89988DB0E06F
:100D4000A0E084179507A607B707F8F00E944C0AA1
:100D5000A70196010E94AD0A9B01AC012F5F3F4F96
:100D60004F4F5F4FA4E6B0E00E94CC0A0E9474018E
:100D7000D3CF81E0DF91CF91FF90EF90DF90CF90C4
:100D8000BF90AF909F908F90089580E0F3CF1F9217
:100D90000F920FB60F9211242F933F938F939F932F
:100DA000AF93BF938091070290910802A09109022E
:100DB000B0910A023091060223E0230F2D3758F537
:100DC0000196A11DB11D2093060280930702909306
:100DD0000802A0930902B0930A0280910B0290913D
:100DE0000C02A0910D02B0910E020196A11DB11D41
:100DF00080930B0290930C02A0930D02B0930E020D
:100E0000BF91AF919F918F913F912F910F900FBE06
:100E10000F901F90189526E8230F0296A11DB11D73
:100E2000D2CF1F920F920FB60F9211242F933F93A0
:100E30004F935F936F937F938F939F93AF93BF93E2
:100E4000EF93FF938FE092E00E943102FF91EF91C8
:100E5000BF91AF919F918F917F916F915F914F91D2
:100E60003F912F910F900FBE0F901F9018951F92DA
:100E70000F920FB60F9211242F938F939F93EF939E
:100E8000FF93E0911F02F09120028081E091250202
:100E9000F091260282FD1BC09081809128028F5F15
:100EA0008F7320912902821741F0E0912802F0E02F
:100EB000E15FFD4F958F80932802FF91EF919F9105
:100EC0008F912F910F900FBE0F901F9018958081DA
:100ED000F4CF1F920F920FB60F921124CF92DF9290
:100EE000EF92FF920F931F932F933F934F935F9334
:100EF0006F937F938F939F93AF93BF93CF93DF9322
:100F0000EF93FF93C0910402D09105028A819B81E7
:100F1000049709F0C7C08B8D0E94BC0021E0892B8B
:100F200009F420E08E8D922F9827281719F08BA1B5
:100F30008F5F8BA38AA18917F1F18CA12DE18035F8
:100F400008F42BE08CA1820F8CA39AA38CA1803A89
:100F500008F46DC08EA19FA1969587959FA38EA33F
:100F60008BA1853028F08EA19FA198609FA38EA3AE
:100F70008CA1805A8CA31BA28DA1882309F486C062
:100F800088A58F5F88A78C3008F451C08EA19FA1DF
:100F9000982F9F73892F86958695887028E0280F53
:100FA000821769F0E82FF0E0EE5EFE4F3081931774
:100FB00039F08F5FF5CF8CA18C5E8CA3C7CF80E01A
:100FC00090E1899F900111248EA19FA136E0969512
:100FD00087953A95E1F7482F95958795959587954B
:100FE000887098E0980F981749F0E82FF0E0EE5ECF
:100FF000FE4F5081451719F08F5FF5CF80E0822BAF
:10100000DE01A359BF4F9C91AE0144595F4F91112E
:1010100027C0FA0180839081973018F09081943432
:10102000F8F01DA2888999890196998B888BFF9188
:10103000EF91DF91CF91BF91AF919F918F917F9170
:101040006F915F914F913F912F911F910F91FF9061
:10105000EF90DF90CF900F900FBE0F901F901895DC
:101060002C9191E0920F9C932C0F3D2F311DF90193
:1010700081A79C91DA018C91981730F01DA281E034
:1010800088A3CE010E94850418A6D1CF8EA19FA16E
:1010900088339B4061F681E08DA318A6C359DF4FCA
:1010A0001882C5CF8A819B81039709F68E0100596A
:1010B0001F4FF801808191E0980F9083811113C038
:1010C0006E01FEE6CF0ED11CD601EC91AF56BF4F9C
:1010D0008C91E81778F0CE010E9485048C899D8957
:1010E00001969D8B8C8BD8018C91883008F49FCF12
:1010F0001C929DCFEC0FFD2FF11DEF58FF4F60812B
:1011000070E07E01BFE6EB0EF11CF701808191E0FB
:10111000980F908302C0759567958A95E2F7617084
:101120008C8D0E94E500D7018C918630E0F21C92F4
:10113000F60180818F5F8083D6CFCF93DF93CDB7C9
:10114000DEB728970FB6F894DEBF0FBECDBFEFE035
:10115000F2E01382128288EE93E0A0E0B0E0848394
:101160009583A683B78386E291E09183808385ECA3
:1011700090E09587848784EC90E09787868780EC61
:1011800090E0918B808B81EC90E0938B828B82EC52
:1011900090E0958B848B86EC90E0978B868B118EFC
:1011A000128E138E148EECEAF2E0138212828FEF0D
:1011B00084838287838714861586118A108A138A0E
:1011C000128A158A148A108E178A88E391E0918317
:1011D000808380ED97E0928F818F8BE0838F8CE00E
:1011E000848F8AE0858F168E178E88E0EAE0F1E022
:1011F000DE01119601900D928A95E1F788E0FE01DB
:101200003196ADE1B3E001900D928A95E1F7289611
:101210000FB6F894DEBF0FBECDBFDF91CF9108951A
:10122000789484B5826084BD84B5816084BD85B5C1
:10123000826085BD85B5816085BD80916E008160CD
:1012400080936E0010928100809181008260809373
:101250008100809181008160809381008091800075
:101260008160809380008091B10084608093B100A0
:101270008091B00081608093B00080917A0084609A
:1012800080937A0080917A00826080937A008091C6
:101290007A00816080937A0080917A0080688093E0
:1012A0007A001092C100E0911F02F091200282E0CA
:1012B0008083E0911B02F0911C021082E0911D02DC
:1012C000F0911E0280E1808310922702E0912302B8
:1012D000F091240286E08083E0912102F0912202C5
:1012E000808180618083E0912102F09122028081DF
:1012F00088608083E0912102F091220280818068E1
:101300008083E0912102F091220280818F7D808391
:1013100087E791E00E94830562E084E00E94130168
:1013200062E082E00E94130162E083E00E94130108
:1013300061E08DE00E9413018CEA92E00E94DA05E0
:10134000882321F085E891E00E948305C0E0D1E088
:1013500083E00E94BC00892B41F445E061E971E023
:101360008CEA92E00E94DE02F3CF82E00E94BC0091
:10137000892BD1F484E00E94BC000197A9F487E98D
:1013800091E00E94830546E06CEA71E08CEA92E00D
:101390000E94DE028CEA92E00E940A056C2F8DE02A
:1013A0000E94E500CD27D4CF82E00E94BC000197C7
:1013B00069F082E00E94BC00892BA9F083EB91E0E8
:1013C0000E94830545E065EC71E0E0CF84E00E9477
:1013D000BC00892B71F78BEC91E00E94830545E0FE
:1013E0006FED71E0D3CF84E00E94BC00892B31F710
:1013F00085EE91E00E94830545E06EEF71E0C6CF77
:101400008F929F92AF92BF92CF92DF92EF92FF9214
:10141000CF93DF93EC01688179818A819B8161158B
:1014200071058105910521F464E279ED8BE597E082
:101430002DE133EF41E050E00E94AD0A49015A012D
:101440009B01AC01A7EAB1E40E94CC0A6B017C01CC
:10145000ACEEB4EFA50194010E94DA0AC60ED71EC5
:10146000E81EF91EF7FE06C081E0C81AD108E1089F
:1014700080E8F80AC882D982EA82FB82C701B601F5
:101480009F77DF91CF91FF90EF90DF90CF90BF904B
:10149000AF909F908F9008958F929F92AF92BF923E
:1014A000CF92DF92EF92FF92609100017091010163
:1014B00080910201909103016115710581059105EB
:1014C00021F464E279ED8BE597E02DE133EF41E023
:1014D00050E00E94AD0A49015A019B01AC01A7EA04
:1014E000B1E40E94CC0A6B017C01ACEEB4EFA50123
:1014F00094010E94DA0AC60ED71EE81EF91EF7FEF6
:1015000006C081E0C81AD108E10880E8F80AC09254
:101510000001D0920101E0920201F0920301C701A3
:10152000B6019F77FF90EF90DF90CF90BF90AF9084
:101530009F908F90089560930001709301018093B4
:101540000201909303010895FB01DC0102C00590A4
:101550000D9241505040D8F70895052E97FB1EF488
:1015600000940E94C40A57FD07D00E94DF0A07FCBE
:1015700003D04EF40C94C40A5095409530952195B3
:101580003F4F4F4F5F4F08959095809570956195AF
:101590007F4F8F4F9F4F08950E94010BA59F900D85
:1015A000B49F900DA49F800D911D11240895B7FF45
:1015B0000C94CC0A0E94CC0A821B930B0895A1E2E2
:1015C0001A2EAA1BBB1BFD010DC0AA1FBB1FEE1FBD
:1015D000FF1FA217B307E407F50720F0A21BB30B08
:1015E000E40BF50B661F771F881F991F1A9469F784
:1015F00060957095809590959B01AC01BD01CF01E0
:101600000895A29FB001B39FC001A39F700D811DDB
:101610001124911DB29F700D811D1124911D0895FB
:10162000EE0FFF1F0590F491E02D09940F931F9387
:10163000CF93DF938230910510F482E090E0E09147
:10164000AE03F091AF0330E020E0B0E0A0E03097CF
:1016500099F42115310509F44AC0281B390B2430AF
:101660003105D8F58A819B816115710589F1FB01EE
:1016700093838283FE0111C04081518102811381D5
:1016800048175907E0F04817590799F4109761F087
:1016900012960C93129713961C933296CF01DF91FA
:1016A000CF911F910F9108950093AE031093AF0354
:1016B000F4CF2115310551F04217530738F0A90135
:1016C000DB019A01BD01DF01F801C1CFEF01F9CFC4
:1016D0009093AF038093AE03CDCFFE01E20FF31FD3
:1016E000819391932250310939832883D7CF209158
:1016F000AC033091AD03232B41F4209106013091CE
:1017000007013093AD032093AC0320910401309185
:1017100005012115310541F42DB73EB7409108016F
:1017200050910901241B350BE091AC03F091AD03FE
:10173000E217F307A0F42E1B3F0B2817390778F0A8
:10174000AC014E5F5F4F2417350748F04E0F5F1F07
:101750005093AD034093AC03819391939FCFF0E0FE
:10176000E0E09CCFCF93DF930097E9F0FC01329744
:1017700013821282A091AE03B091AF03ED0130E06D
:1017800020E01097A1F420813181820F931F2091D6
:10179000AC033091AD032817390709F061C0F0930D
:1017A000AD03E093AC03DF91CF910895EA01CE172A
:1017B000DF07E8F54A815B819E0141155105B1F7CC
:1017C000E901FB83EA8349915991C40FD51FEC17B6
:1017D000FD0761F4808191810296840F951FE901D4
:1017E00099838883828193819B838A83F0E0E0E000
:1017F00012968D919C9113970097B9F52D913C917C
:101800001197CD010296820F931F2091AC03309166
:10181000AD032817390739F6309751F51092AF0309
:101820001092AE03B093AD03A093AC03BCCFD383AF
:10183000C28340815181840F951FC817D90761F475
:101840004E5F5F4F88819981480F591F51834083B4
:101850008A819B81938382832115310509F0B0CF62
:10186000F093AF03E093AE039ECFFD01DC01C0CF48
:1018700013821282D7CF81E090E0F8940C94490C47
:10188000FB01DC0102C001900D9241505040D8F79D
:061890000895F894FFCF5B
:10189600010000000000B00380002A2A2A2A2A2A12
:1018A600382C0D0E131516191A1C232526292A2C39
:1018B6003234000000005302B301E001A00211021D
:1018C600EF01030200000000DB02A205DA05250491
:1018D600A405DE02DC025C050A05DB0412057306BC
:1018E600AB04D504D204CF04CC04C504D804C20486
:1018F600BF04BC04B904B504B104AD04AB04A70429
:10190600A3049F040D0A0050726F6772616D207305
:101916007461727400696E69742073656E646572B1
:101926000053544F505F00526967687420627574A3
:10193600746F6E20707265737365640052696768B0
:10194600745F004E6F20627574746F6E20707265DE
:1019560073736564004E6F6E655F004C6566742038
:10196600627574746F6E2070726573736564004C73
:101976006566745F004D756C7469706C6520627580
:1019860074746F6E73207072657373656400426F52
:0419960074685F0012
:00000001FF
